{
  "contractName": "DFund",
  "abi": [
    {
      "anonymous": false,
      "inputs": [
        {
          "indexed": true,
          "internalType": "uint256",
          "name": "id",
          "type": "uint256"
        },
        {
          "indexed": true,
          "internalType": "address",
          "name": "creator",
          "type": "address"
        },
        {
          "indexed": false,
          "internalType": "string",
          "name": "title",
          "type": "string"
        },
        {
          "indexed": false,
          "internalType": "uint256",
          "name": "goalAmount",
          "type": "uint256"
        },
        {
          "indexed": false,
          "internalType": "uint256",
          "name": "deadline",
          "type": "uint256"
        },
        {
          "indexed": false,
          "internalType": "bool",
          "name": "expertReviewRequested",
          "type": "bool"
        }
      ],
      "name": "ProjectRegistered",
      "type": "event"
    },
    {
      "inputs": [
        {
          "internalType": "uint256",
          "name": "",
          "type": "uint256"
        }
      ],
      "name": "projectBalance",
      "outputs": [
        {
          "internalType": "uint256",
          "name": "",
          "type": "uint256"
        }
      ],
      "stateMutability": "view",
      "type": "function",
      "constant": true
    },
    {
      "inputs": [],
      "name": "projectCount",
      "outputs": [
        {
          "internalType": "uint256",
          "name": "",
          "type": "uint256"
        }
      ],
      "stateMutability": "view",
      "type": "function",
      "constant": true
    },
    {
      "inputs": [
        {
          "internalType": "uint256",
          "name": "",
          "type": "uint256"
        }
      ],
      "name": "projects",
      "outputs": [
        {
          "internalType": "uint256",
          "name": "id",
          "type": "uint256"
        },
        {
          "internalType": "address",
          "name": "creator",
          "type": "address"
        },
        {
          "internalType": "string",
          "name": "title",
          "type": "string"
        },
        {
          "internalType": "string",
          "name": "description",
          "type": "string"
        },
        {
          "internalType": "string",
          "name": "image",
          "type": "string"
        },
        {
          "internalType": "uint256",
          "name": "goalAmount",
          "type": "uint256"
        },
        {
          "internalType": "uint256",
          "name": "deadline",
          "type": "uint256"
        },
        {
          "internalType": "bool",
          "name": "expertReviewRequested",
          "type": "bool"
        },
        {
          "internalType": "bool",
          "name": "isActive",
          "type": "bool"
        }
      ],
      "stateMutability": "view",
      "type": "function",
      "constant": true
    },
    {
      "inputs": [
        {
          "internalType": "string",
          "name": "_title",
          "type": "string"
        },
        {
          "internalType": "string",
          "name": "_description",
          "type": "string"
        },
        {
          "internalType": "string",
          "name": "_image",
          "type": "string"
        },
        {
          "internalType": "string[]",
          "name": "_detailImages",
          "type": "string[]"
        },
        {
          "internalType": "uint256",
          "name": "_goalAmount",
          "type": "uint256"
        },
        {
          "internalType": "uint256",
          "name": "_deadline",
          "type": "uint256"
        },
        {
          "internalType": "bool",
          "name": "_expertReviewRequested",
          "type": "bool"
        }
      ],
      "name": "registerProject",
      "outputs": [],
      "stateMutability": "nonpayable",
      "type": "function"
    },
    {
      "inputs": [
        {
          "internalType": "uint256",
          "name": "_id",
          "type": "uint256"
        }
      ],
      "name": "getProject",
      "outputs": [
        {
          "internalType": "uint256",
          "name": "id",
          "type": "uint256"
        },
        {
          "internalType": "address",
          "name": "creator",
          "type": "address"
        },
        {
          "internalType": "string",
          "name": "title",
          "type": "string"
        },
        {
          "internalType": "string",
          "name": "description",
          "type": "string"
        },
        {
          "internalType": "string",
          "name": "image",
          "type": "string"
        },
        {
          "internalType": "string[]",
          "name": "detailImages",
          "type": "string[]"
        },
        {
          "internalType": "uint256",
          "name": "goalAmount",
          "type": "uint256"
        },
        {
          "internalType": "uint256",
          "name": "deadline",
          "type": "uint256"
        },
        {
          "internalType": "bool",
          "name": "expertReviewRequested",
          "type": "bool"
        }
      ],
      "stateMutability": "view",
      "type": "function",
      "constant": true
    },
    {
      "inputs": [],
      "name": "getAllProjects",
      "outputs": [
        {
          "components": [
            {
              "internalType": "uint256",
              "name": "id",
              "type": "uint256"
            },
            {
              "internalType": "address",
              "name": "creator",
              "type": "address"
            },
            {
              "internalType": "string",
              "name": "title",
              "type": "string"
            },
            {
              "internalType": "string",
              "name": "description",
              "type": "string"
            },
            {
              "internalType": "string",
              "name": "image",
              "type": "string"
            },
            {
              "internalType": "string[]",
              "name": "detailImages",
              "type": "string[]"
            },
            {
              "internalType": "uint256",
              "name": "goalAmount",
              "type": "uint256"
            },
            {
              "internalType": "uint256",
              "name": "deadline",
              "type": "uint256"
            },
            {
              "internalType": "bool",
              "name": "expertReviewRequested",
              "type": "bool"
            },
            {
              "internalType": "bool",
              "name": "isActive",
              "type": "bool"
            }
          ],
          "internalType": "struct DFund.Project[]",
          "name": "",
          "type": "tuple[]"
        }
      ],
      "stateMutability": "view",
      "type": "function",
      "constant": true
    },
    {
      "inputs": [
        {
          "internalType": "uint256",
          "name": "_projectId",
          "type": "uint256"
        }
      ],
      "name": "donateToProject",
      "outputs": [],
      "stateMutability": "payable",
      "type": "function",
      "payable": true
    }
  ],
  "bytecode": "0x60806040526000805534801561001457600080fd5b506120d0806100246000396000f3fe6080604052600436106100705760003560e01c806356adb06f1161004e57806356adb06f1461010e57806380d038291461012a578063f0f3f2c814610155578063fb3490781461019a57610070565b8063107046bd146100755780631af94b51146100ba57806336fbad26146100e3575b600080fd5b34801561008157600080fd5b5061009c6004803603810190610097919061103b565b6101d7565b6040516100b199989796959493929190611163565b60405180910390f35b3480156100c657600080fd5b506100e160048036038101906100dc919061144c565b6103f7565b005b3480156100ef57600080fd5b506100f86106d4565b604051610105919061155e565b60405180910390f35b6101286004803603810190610123919061103b565b6106da565b005b34801561013657600080fd5b5061013f6107ad565b60405161014c9190611863565b60405180910390f35b34801561016157600080fd5b5061017c6004803603810190610177919061103b565b610bb5565b6040516101919998979695949392919061190b565b60405180910390f35b3480156101a657600080fd5b506101c160048036038101906101bc919061103b565b610f6c565b6040516101ce919061155e565b60405180910390f35b60016020528060005260406000206000915090508060000154908060010160009054906101000a900473ffffffffffffffffffffffffffffffffffffffff1690806002018054610226906119e3565b80601f0160208091040260200160405190810160405280929190818152602001828054610252906119e3565b801561029f5780601f106102745761010080835404028352916020019161029f565b820191906000526020600020905b81548152906001019060200180831161028257829003601f168201915b5050505050908060030180546102b4906119e3565b80601f01602080910402602001604051908101604052809291908181526020018280546102e0906119e3565b801561032d5780601f106103025761010080835404028352916020019161032d565b820191906000526020600020905b81548152906001019060200180831161031057829003601f168201915b505050505090806004018054610342906119e3565b80601f016020809104026020016040519081016040528092919081815260200182805461036e906119e3565b80156103bb5780601f10610390576101008083540402835291602001916103bb565b820191906000526020600020905b81548152906001019060200180831161039e57829003601f168201915b5050505050908060060154908060070154908060080160009054906101000a900460ff16908060080160019054906101000a900460ff16905089565b600087511161043b576040517f08c379a000000000000000000000000000000000000000000000000000000000815260040161043290611a60565b60405180910390fd5b600086511161047f576040517f08c379a000000000000000000000000000000000000000000000000000000000815260040161047690611acc565b60405180910390fd5b600083116104c2576040517f08c379a00000000000000000000000000000000000000000000000000000000081526004016104b990611b5e565b60405180910390fd5b428211610504576040517f08c379a00000000000000000000000000000000000000000000000000000000081526004016104fb90611bca565b60405180910390fd5b60008081548092919061051690611c19565b91905055506000600160008054815260200190815260200160002090506000548160000181905550338160010160006101000a81548173ffffffffffffffffffffffffffffffffffffffff021916908373ffffffffffffffffffffffffffffffffffffffff160217905550878160020190816105929190611e0d565b50868160030190816105a49190611e0d565b50858160040190816105b69190611e0d565b50838160060181905550828160070181905550818160080160006101000a81548160ff02191690831515021790555060018160080160016101000a81548160ff02191690831515021790555060005b8551811015610672578160050186828151811061062557610624611edf565b5b602002602001015190806001815401808255809150506001900390600052602060002001600090919091909150908161065e9190611e0d565b50808061066a90611c19565b915050610605565b503373ffffffffffffffffffffffffffffffffffffffff166000547f5d98a4da9d3933cce60386248780b2b24866c65e35cc3eac58c332f0df98d7c48a8787876040516106c29493929190611f0e565b60405180910390a35050505050505050565b60005481565b6000341161071d576040517f08c379a000000000000000000000000000000000000000000000000000000000815260040161071490611fa6565b60405180910390fd5b6001600082815260200190815260200160002060080160019054906101000a900460ff16610780576040517f08c379a000000000000000000000000000000000000000000000000000000000815260040161077790612012565b60405180910390fd5b346002600083815260200190815260200160002060008282546107a39190612032565b9250508190555050565b60606000805467ffffffffffffffff8111156107cc576107cb61120f565b5b60405190808252806020026020018201604052801561080557816020015b6107f2610f84565b8152602001906001900390816107ea5790505b5090506000600190505b6000548111610bad576001600082815260200190815260200160002060405180610140016040529081600082015481526020016001820160009054906101000a900473ffffffffffffffffffffffffffffffffffffffff1673ffffffffffffffffffffffffffffffffffffffff1673ffffffffffffffffffffffffffffffffffffffff1681526020016002820180546108a7906119e3565b80601f01602080910402602001604051908101604052809291908181526020018280546108d3906119e3565b80156109205780601f106108f557610100808354040283529160200191610920565b820191906000526020600020905b81548152906001019060200180831161090357829003601f168201915b50505050508152602001600382018054610939906119e3565b80601f0160208091040260200160405190810160405280929190818152602001828054610965906119e3565b80156109b25780601f10610987576101008083540402835291602001916109b2565b820191906000526020600020905b81548152906001019060200180831161099557829003601f168201915b505050505081526020016004820180546109cb906119e3565b80601f01602080910402602001604051908101604052809291908181526020018280546109f7906119e3565b8015610a445780601f10610a1957610100808354040283529160200191610a44565b820191906000526020600020905b815481529060010190602001808311610a2757829003601f168201915b5050505050815260200160058201805480602002602001604051908101604052809291908181526020016000905b82821015610b1e578382906000526020600020018054610a91906119e3565b80601f0160208091040260200160405190810160405280929190818152602001828054610abd906119e3565b8015610b0a5780601f10610adf57610100808354040283529160200191610b0a565b820191906000526020600020905b815481529060010190602001808311610aed57829003601f168201915b505050505081526020019060010190610a72565b50505050815260200160068201548152602001600782015481526020016008820160009054906101000a900460ff161515151581526020016008820160019054906101000a900460ff16151515158152505082600183610b7e9190612066565b81518110610b8f57610b8e611edf565b5b60200260200101819052508080610ba590611c19565b91505061080f565b508091505090565b600080606080606080600080600080600160008c815260200190815260200160002060405180610140016040529081600082015481526020016001820160009054906101000a900473ffffffffffffffffffffffffffffffffffffffff1673ffffffffffffffffffffffffffffffffffffffff1673ffffffffffffffffffffffffffffffffffffffff168152602001600282018054610c53906119e3565b80601f0160208091040260200160405190810160405280929190818152602001828054610c7f906119e3565b8015610ccc5780601f10610ca157610100808354040283529160200191610ccc565b820191906000526020600020905b815481529060010190602001808311610caf57829003601f168201915b50505050508152602001600382018054610ce5906119e3565b80601f0160208091040260200160405190810160405280929190818152602001828054610d11906119e3565b8015610d5e5780601f10610d3357610100808354040283529160200191610d5e565b820191906000526020600020905b815481529060010190602001808311610d4157829003601f168201915b50505050508152602001600482018054610d77906119e3565b80601f0160208091040260200160405190810160405280929190818152602001828054610da3906119e3565b8015610df05780601f10610dc557610100808354040283529160200191610df0565b820191906000526020600020905b815481529060010190602001808311610dd357829003601f168201915b5050505050815260200160058201805480602002602001604051908101604052809291908181526020016000905b82821015610eca578382906000526020600020018054610e3d906119e3565b80601f0160208091040260200160405190810160405280929190818152602001828054610e69906119e3565b8015610eb65780601f10610e8b57610100808354040283529160200191610eb6565b820191906000526020600020905b815481529060010190602001808311610e9957829003601f168201915b505050505081526020019060010190610e1e565b50505050815260200160068201548152602001600782015481526020016008820160009054906101000a900460ff161515151581526020016008820160019054906101000a900460ff1615151515815250509050806000015181602001518260400151836060015184608001518560a001518660c001518760e00151886101000151995099509950995099509950995099509950509193959799909294969850565b60026020528060005260406000206000915090505481565b60405180610140016040528060008152602001600073ffffffffffffffffffffffffffffffffffffffff1681526020016060815260200160608152602001606081526020016060815260200160008152602001600081526020016000151581526020016000151581525090565b6000604051905090565b600080fd5b600080fd5b6000819050919050565b61101881611005565b811461102357600080fd5b50565b6000813590506110358161100f565b92915050565b60006020828403121561105157611050610ffb565b5b600061105f84828501611026565b91505092915050565b61107181611005565b82525050565b600073ffffffffffffffffffffffffffffffffffffffff82169050919050565b60006110a282611077565b9050919050565b6110b281611097565b82525050565b600081519050919050565b600082825260208201905092915050565b60005b838110156110f25780820151818401526020810190506110d7565b60008484015250505050565b6000601f19601f8301169050919050565b600061111a826110b8565b61112481856110c3565b93506111348185602086016110d4565b61113d816110fe565b840191505092915050565b60008115159050919050565b61115d81611148565b82525050565b600061012082019050611179600083018c611068565b611186602083018b6110a9565b8181036040830152611198818a61110f565b905081810360608301526111ac818961110f565b905081810360808301526111c0818861110f565b90506111cf60a0830187611068565b6111dc60c0830186611068565b6111e960e0830185611154565b6111f7610100830184611154565b9a9950505050505050505050565b600080fd5b600080fd5b7f4e487b7100000000000000000000000000000000000000000000000000000000600052604160045260246000fd5b611247826110fe565b810181811067ffffffffffffffff821117156112665761126561120f565b5b80604052505050565b6000611279610ff1565b9050611285828261123e565b919050565b600067ffffffffffffffff8211156112a5576112a461120f565b5b6112ae826110fe565b9050602081019050919050565b82818337600083830152505050565b60006112dd6112d88461128a565b61126f565b9050828152602081018484840111156112f9576112f861120a565b5b6113048482856112bb565b509392505050565b600082601f83011261132157611320611205565b5b81356113318482602086016112ca565b91505092915050565b600067ffffffffffffffff8211156113555761135461120f565b5b602082029050602081019050919050565b600080fd5b600061137e6113798461133a565b61126f565b905080838252602082019050602084028301858111156113a1576113a0611366565b5b835b818110156113e857803567ffffffffffffffff8111156113c6576113c5611205565b5b8086016113d3898261130c565b855260208501945050506020810190506113a3565b5050509392505050565b600082601f83011261140757611406611205565b5b813561141784826020860161136b565b91505092915050565b61142981611148565b811461143457600080fd5b50565b60008135905061144681611420565b92915050565b600080600080600080600060e0888a03121561146b5761146a610ffb565b5b600088013567ffffffffffffffff81111561148957611488611000565b5b6114958a828b0161130c565b975050602088013567ffffffffffffffff8111156114b6576114b5611000565b5b6114c28a828b0161130c565b965050604088013567ffffffffffffffff8111156114e3576114e2611000565b5b6114ef8a828b0161130c565b955050606088013567ffffffffffffffff8111156115105761150f611000565b5b61151c8a828b016113f2565b945050608061152d8a828b01611026565b93505060a061153e8a828b01611026565b92505060c061154f8a828b01611437565b91505092959891949750929550565b60006020820190506115736000830184611068565b92915050565b600081519050919050565b600082825260208201905092915050565b6000819050602082019050919050565b6115ae81611005565b82525050565b6115bd81611097565b82525050565b600082825260208201905092915050565b60006115df826110b8565b6115e981856115c3565b93506115f98185602086016110d4565b611602816110fe565b840191505092915050565b600081519050919050565b600082825260208201905092915050565b6000819050602082019050919050565b600061164583836115d4565b905092915050565b6000602082019050919050565b60006116658261160d565b61166f8185611618565b93508360208202850161168185611629565b8060005b858110156116bd578484038952815161169e8582611639565b94506116a98361164d565b925060208a01995050600181019050611685565b50829750879550505050505092915050565b6116d881611148565b82525050565b6000610140830160008301516116f760008601826115a5565b50602083015161170a60208601826115b4565b506040830151848203604086015261172282826115d4565b9150506060830151848203606086015261173c82826115d4565b9150506080830151848203608086015261175682826115d4565b91505060a083015184820360a0860152611770828261165a565b91505060c083015161178560c08601826115a5565b5060e083015161179860e08601826115a5565b506101008301516117ad6101008601826116cf565b506101208301516117c26101208601826116cf565b508091505092915050565b60006117d983836116de565b905092915050565b6000602082019050919050565b60006117f982611579565b6118038185611584565b93508360208202850161181585611595565b8060005b85811015611851578484038952815161183285826117cd565b945061183d836117e1565b925060208a01995050600181019050611819565b50829750879550505050505092915050565b6000602082019050818103600083015261187d81846117ee565b905092915050565b600082825260208201905092915050565b60006118a18261160d565b6118ab8185611885565b9350836020820285016118bd85611629565b8060005b858110156118f957848403895281516118da8582611639565b94506118e58361164d565b925060208a019950506001810190506118c1565b50829750879550505050505092915050565b600061012082019050611921600083018c611068565b61192e602083018b6110a9565b8181036040830152611940818a61110f565b90508181036060830152611954818961110f565b90508181036080830152611968818861110f565b905081810360a083015261197c8187611896565b905061198b60c0830186611068565b61199860e0830185611068565b6119a6610100830184611154565b9a9950505050505050505050565b7f4e487b7100000000000000000000000000000000000000000000000000000000600052602260045260246000fd5b600060028204905060018216806119fb57607f821691505b602082108103611a0e57611a0d6119b4565b5b50919050565b7f5469746c652069732072657175697265642e0000000000000000000000000000600082015250565b6000611a4a6012836110c3565b9150611a5582611a14565b602082019050919050565b60006020820190508181036000830152611a7981611a3d565b9050919050565b7f4465736372697074696f6e2069732072657175697265642e0000000000000000600082015250565b6000611ab66018836110c3565b9150611ac182611a80565b602082019050919050565b60006020820190508181036000830152611ae581611aa9565b9050919050565b7f476f616c20616d6f756e74206d7573742062652067726561746572207468616e60008201527f207a65726f2e0000000000000000000000000000000000000000000000000000602082015250565b6000611b486026836110c3565b9150611b5382611aec565b604082019050919050565b60006020820190508181036000830152611b7781611b3b565b9050919050565b7f446561646c696e65206d7573742062652061206675747572652074696d652e00600082015250565b6000611bb4601f836110c3565b9150611bbf82611b7e565b602082019050919050565b60006020820190508181036000830152611be381611ba7565b9050919050565b7f4e487b7100000000000000000000000000000000000000000000000000000000600052601160045260246000fd5b6000611c2482611005565b91507fffffffffffffffffffffffffffffffffffffffffffffffffffffffffffffffff8203611c5657611c55611bea565b5b600182019050919050565b60008190508160005260206000209050919050565b60006020601f8301049050919050565b600082821b905092915050565b600060088302611cc37fffffffffffffffffffffffffffffffffffffffffffffffffffffffffffffffff82611c86565b611ccd8683611c86565b95508019841693508086168417925050509392505050565b6000819050919050565b6000611d0a611d05611d0084611005565b611ce5565b611005565b9050919050565b6000819050919050565b611d2483611cef565b611d38611d3082611d11565b848454611c93565b825550505050565b600090565b611d4d611d40565b611d58818484611d1b565b505050565b5b81811015611d7c57611d71600082611d45565b600181019050611d5e565b5050565b601f821115611dc157611d9281611c61565b611d9b84611c76565b81016020851015611daa578190505b611dbe611db685611c76565b830182611d5d565b50505b505050565b600082821c905092915050565b6000611de460001984600802611dc6565b1980831691505092915050565b6000611dfd8383611dd3565b9150826002028217905092915050565b611e16826110b8565b67ffffffffffffffff811115611e2f57611e2e61120f565b5b611e3982546119e3565b611e44828285611d80565b600060209050601f831160018114611e775760008415611e65578287015190505b611e6f8582611df1565b865550611ed7565b601f198416611e8586611c61565b60005b82811015611ead57848901518255600182019150602085019450602081019050611e88565b86831015611eca5784890151611ec6601f891682611dd3565b8355505b6001600288020188555050505b505050505050565b7f4e487b7100000000000000000000000000000000000000000000000000000000600052603260045260246000fd5b60006080820190508181036000830152611f28818761110f565b9050611f376020830186611068565b611f446040830185611068565b611f516060830184611154565b95945050505050565b7f4d7573742073656e642045544800000000000000000000000000000000000000600082015250565b6000611f90600d836110c3565b9150611f9b82611f5a565b602082019050919050565b60006020820190508181036000830152611fbf81611f83565b9050919050565b7f496e76616c69642070726f6a6563740000000000000000000000000000000000600082015250565b6000611ffc600f836110c3565b915061200782611fc6565b602082019050919050565b6000602082019050818103600083015261202b81611fef565b9050919050565b600061203d82611005565b915061204883611005565b92508282019050808211156120605761205f611bea565b5b92915050565b600061207182611005565b915061207c83611005565b925082820390508181111561209457612093611bea565b5b9291505056fea2646970667358221220333b362420cd2af860b4aeb099cf93823de33e98f7226017816dde0bedc0cf3864736f6c63430008130033",
  "immutableReferences": {},
  "source": "// SPDX-License-Identifier: MIT\npragma solidity ^0.8.19;\n\ncontract DFund {\n    uint public projectCount = 0;\n\n    struct Project {\n        uint id;\n        address creator;\n        string title;\n        string description;\n        string image;               //    ()\n        string[] detailImages;      //     ()\n        uint goalAmount;            // : wei\n        uint deadline;              // Unix timestamp\n        bool expertReviewRequested;\n        bool isActive;\n    }\n\n    mapping(uint => Project) public projects;\n    mapping(uint => uint) public projectBalance;\n\n    event ProjectRegistered(\n        uint indexed id,\n        address indexed creator,\n        string title,\n        uint goalAmount,\n        uint deadline,\n        bool expertReviewRequested\n    );\n\n    function registerProject(\n        string memory _title,\n        string memory _description,\n        string memory _image,             //  image  \n        string[] memory _detailImages,    //  detailImages  \n        uint _goalAmount,\n        uint _deadline,\n        bool _expertReviewRequested\n    ) public {\n        require(bytes(_title).length > 0, \"Title is required.\");\n        require(bytes(_description).length > 0, \"Description is required.\");\n        require(_goalAmount > 0, \"Goal amount must be greater than zero.\");\n        require(_deadline > block.timestamp, \"Deadline must be a future time.\");\n\n        projectCount++;\n\n        Project storage newProject = projects[projectCount];\n        newProject.id = projectCount;\n        newProject.creator = msg.sender;\n        newProject.title = _title;\n        newProject.description = _description;\n        newProject.image = _image;                     //   \n        newProject.goalAmount = _goalAmount;\n        newProject.deadline = _deadline;\n        newProject.expertReviewRequested = _expertReviewRequested;\n        newProject.isActive = true;\n\n        for (uint i = 0; i < _detailImages.length; i++) {\n            newProject.detailImages.push(_detailImages[i]); //     \n        }\n\n        emit ProjectRegistered(\n            projectCount,\n            msg.sender,\n            _title,\n            _goalAmount,\n            _deadline,\n            _expertReviewRequested\n        );\n    }\n\n    function getProject(uint _id) public view returns (\n        uint id,\n        address creator,\n        string memory title,\n        string memory description,\n        string memory image,               //   \n        string[] memory detailImages,      //   \n        uint goalAmount,\n        uint deadline,\n        bool expertReviewRequested\n    ) {\n        Project memory p = projects[_id];\n        return (\n            p.id,\n            p.creator,\n            p.title,\n            p.description,\n            p.image,\n            p.detailImages,\n            p.goalAmount,\n            p.deadline,\n            p.expertReviewRequested\n        );\n    }\n\n    function getAllProjects() public view returns (Project[] memory) {\n        Project[] memory result = new Project[](projectCount);\n        for (uint i = 1; i <= projectCount; i++) {\n            result[i - 1] = projects[i];\n        }\n        return result;\n    }\n\n    function donateToProject(uint _projectId) external payable {\n        require(msg.value > 0, \"Must send ETH\");\n        require(projects[_projectId].isActive, \"Invalid project\");\n        projectBalance[_projectId] += msg.value;\n    }\n}\n",
  "sourcePath": "/Users/kimtaewoo/Desktop/D-Fund/src/contracts/DFund.sol",
  "compiler": {
    "name": "solc",
    "version": "0.8.19+commit.7dd6d404.Emscripten.clang"
  },
  "schemaVersion": "3.4.16",
  "updatedAt": "2025-05-18T11:04:02.850Z",
  "networkType": "ethereum",
  "devdoc": {
    "kind": "dev",
    "methods": {},
    "version": 1
  },
  "userdoc": {
    "kind": "user",
    "methods": {},
    "version": 1
  }
}