{
  "contractName": "DFund",
  "abi": [
    {
      "anonymous": false,
      "inputs": [
        {
          "indexed": true,
          "internalType": "uint256",
          "name": "id",
          "type": "uint256"
        },
        {
          "indexed": true,
          "internalType": "address",
          "name": "creator",
          "type": "address"
        },
        {
          "indexed": false,
          "internalType": "string",
          "name": "title",
          "type": "string"
        },
        {
          "indexed": false,
          "internalType": "uint256",
          "name": "goalAmount",
          "type": "uint256"
        },
        {
          "indexed": false,
          "internalType": "uint256",
          "name": "deadline",
          "type": "uint256"
        },
        {
          "indexed": false,
          "internalType": "bool",
          "name": "expertReviewRequested",
          "type": "bool"
        }
      ],
      "name": "ProjectRegistered",
      "type": "event"
    },
    {
      "inputs": [
        {
          "internalType": "uint256",
          "name": "_projectId",
          "type": "uint256"
        },
        {
          "internalType": "uint8",
          "name": "newStatus",
          "type": "uint8"
        }
      ],
      "name": "changeProjectStatusAndRefund",
      "outputs": [],
      "stateMutability": "nonpayable",
      "type": "function"
    },
    {
      "inputs": [
        {
          "internalType": "uint256",
          "name": "_projectId",
          "type": "uint256"
        }
      ],
      "name": "donateToProject",
      "outputs": [],
      "stateMutability": "payable",
      "type": "function",
      "payable": true
    },
    {
      "inputs": [
        {
          "internalType": "uint256",
          "name": "",
          "type": "uint256"
        },
        {
          "internalType": "address",
          "name": "",
          "type": "address"
        }
      ],
      "name": "donorBalances",
      "outputs": [
        {
          "internalType": "uint256",
          "name": "",
          "type": "uint256"
        }
      ],
      "stateMutability": "view",
      "type": "function",
      "constant": true
    },
    {
      "inputs": [],
      "name": "getAllProjects",
      "outputs": [
        {
          "components": [
            {
              "internalType": "uint256",
              "name": "id",
              "type": "uint256"
            },
            {
              "internalType": "address",
              "name": "creator",
              "type": "address"
            },
            {
              "internalType": "string",
              "name": "title",
              "type": "string"
            },
            {
              "internalType": "string",
              "name": "description",
              "type": "string"
            },
            {
              "internalType": "string",
              "name": "image",
              "type": "string"
            },
            {
              "internalType": "string[]",
              "name": "detailImages",
              "type": "string[]"
            },
            {
              "internalType": "uint256",
              "name": "goalAmount",
              "type": "uint256"
            },
            {
              "internalType": "uint256",
              "name": "deadline",
              "type": "uint256"
            },
            {
              "internalType": "bool",
              "name": "expertReviewRequested",
              "type": "bool"
            },
            {
              "internalType": "enum FundStorage.ProjectStatus",
              "name": "status",
              "type": "uint8"
            }
          ],
          "internalType": "struct FundStorage.Project[]",
          "name": "",
          "type": "tuple[]"
        }
      ],
      "stateMutability": "view",
      "type": "function",
      "constant": true
    },
    {
      "inputs": [
        {
          "internalType": "uint256",
          "name": "_projectId",
          "type": "uint256"
        },
        {
          "internalType": "address",
          "name": "_donor",
          "type": "address"
        }
      ],
      "name": "getDonorBalance",
      "outputs": [
        {
          "internalType": "uint256",
          "name": "",
          "type": "uint256"
        }
      ],
      "stateMutability": "view",
      "type": "function",
      "constant": true
    },
    {
      "inputs": [
        {
          "internalType": "uint256",
          "name": "_id",
          "type": "uint256"
        }
      ],
      "name": "getProject",
      "outputs": [
        {
          "components": [
            {
              "internalType": "uint256",
              "name": "id",
              "type": "uint256"
            },
            {
              "internalType": "address",
              "name": "creator",
              "type": "address"
            },
            {
              "internalType": "string",
              "name": "title",
              "type": "string"
            },
            {
              "internalType": "string",
              "name": "description",
              "type": "string"
            },
            {
              "internalType": "string",
              "name": "image",
              "type": "string"
            },
            {
              "internalType": "string[]",
              "name": "detailImages",
              "type": "string[]"
            },
            {
              "internalType": "uint256",
              "name": "goalAmount",
              "type": "uint256"
            },
            {
              "internalType": "uint256",
              "name": "deadline",
              "type": "uint256"
            },
            {
              "internalType": "bool",
              "name": "expertReviewRequested",
              "type": "bool"
            },
            {
              "internalType": "enum FundStorage.ProjectStatus",
              "name": "status",
              "type": "uint8"
            }
          ],
          "internalType": "struct FundStorage.Project",
          "name": "",
          "type": "tuple"
        }
      ],
      "stateMutability": "view",
      "type": "function",
      "constant": true
    },
    {
      "inputs": [
        {
          "internalType": "uint256",
          "name": "_projectId",
          "type": "uint256"
        }
      ],
      "name": "getRemainingFunds",
      "outputs": [
        {
          "internalType": "uint256",
          "name": "",
          "type": "uint256"
        }
      ],
      "stateMutability": "view",
      "type": "function",
      "constant": true
    },
    {
      "inputs": [
        {
          "internalType": "uint256",
          "name": "_projectId",
          "type": "uint256"
        }
      ],
      "name": "getTotalDonated",
      "outputs": [
        {
          "internalType": "uint256",
          "name": "",
          "type": "uint256"
        }
      ],
      "stateMutability": "view",
      "type": "function",
      "constant": true
    },
    {
      "inputs": [
        {
          "internalType": "uint256",
          "name": "",
          "type": "uint256"
        },
        {
          "internalType": "address",
          "name": "",
          "type": "address"
        }
      ],
      "name": "hasDonated",
      "outputs": [
        {
          "internalType": "bool",
          "name": "",
          "type": "bool"
        }
      ],
      "stateMutability": "view",
      "type": "function",
      "constant": true
    },
    {
      "inputs": [],
      "name": "projectCount",
      "outputs": [
        {
          "internalType": "uint256",
          "name": "",
          "type": "uint256"
        }
      ],
      "stateMutability": "view",
      "type": "function",
      "constant": true
    },
    {
      "inputs": [
        {
          "internalType": "uint256",
          "name": "",
          "type": "uint256"
        },
        {
          "internalType": "uint256",
          "name": "",
          "type": "uint256"
        }
      ],
      "name": "projectDonors",
      "outputs": [
        {
          "internalType": "address",
          "name": "",
          "type": "address"
        }
      ],
      "stateMutability": "view",
      "type": "function",
      "constant": true
    },
    {
      "inputs": [
        {
          "internalType": "uint256",
          "name": "",
          "type": "uint256"
        }
      ],
      "name": "projectFunds",
      "outputs": [
        {
          "internalType": "uint256",
          "name": "totalDonated",
          "type": "uint256"
        },
        {
          "internalType": "uint256",
          "name": "transferredToCreator",
          "type": "uint256"
        }
      ],
      "stateMutability": "view",
      "type": "function",
      "constant": true
    },
    {
      "inputs": [
        {
          "internalType": "uint256",
          "name": "",
          "type": "uint256"
        }
      ],
      "name": "projects",
      "outputs": [
        {
          "internalType": "uint256",
          "name": "id",
          "type": "uint256"
        },
        {
          "internalType": "address",
          "name": "creator",
          "type": "address"
        },
        {
          "internalType": "string",
          "name": "title",
          "type": "string"
        },
        {
          "internalType": "string",
          "name": "description",
          "type": "string"
        },
        {
          "internalType": "string",
          "name": "image",
          "type": "string"
        },
        {
          "internalType": "uint256",
          "name": "goalAmount",
          "type": "uint256"
        },
        {
          "internalType": "uint256",
          "name": "deadline",
          "type": "uint256"
        },
        {
          "internalType": "bool",
          "name": "expertReviewRequested",
          "type": "bool"
        },
        {
          "internalType": "enum FundStorage.ProjectStatus",
          "name": "status",
          "type": "uint8"
        }
      ],
      "stateMutability": "view",
      "type": "function",
      "constant": true
    },
    {
      "inputs": [
        {
          "internalType": "string",
          "name": "_title",
          "type": "string"
        },
        {
          "internalType": "string",
          "name": "_description",
          "type": "string"
        },
        {
          "internalType": "string",
          "name": "_image",
          "type": "string"
        },
        {
          "internalType": "string[]",
          "name": "_detailImages",
          "type": "string[]"
        },
        {
          "internalType": "uint256",
          "name": "_goalAmount",
          "type": "uint256"
        },
        {
          "internalType": "uint256",
          "name": "_deadline",
          "type": "uint256"
        },
        {
          "internalType": "bool",
          "name": "_expertReviewRequested",
          "type": "bool"
        }
      ],
      "name": "registerProject",
      "outputs": [],
      "stateMutability": "nonpayable",
      "type": "function"
    },
    {
      "inputs": [
        {
          "internalType": "uint256",
          "name": "_projectId",
          "type": "uint256"
        },
        {
          "internalType": "uint256",
          "name": "_percent",
          "type": "uint256"
        }
      ],
      "name": "releaseFundsToCreator",
      "outputs": [],
      "stateMutability": "nonpayable",
      "type": "function"
    }
  ],
  "bytecode": "0x608060405234801561001057600080fd5b5061333c806100206000396000f3fe6080604052600436106100e85760003560e01c806356adb06f1161008a578063b1d9fddb11610059578063b1d9fddb14610328578063c8c2dec414610351578063ed043e3e1461038e578063f0f3f2c8146103cb576100e8565b806356adb06f14610266578063794d55601461028257806380d03829146102c0578063a3739f71146102eb576100e8565b806336fbad26116100c657806336fbad2614610198578063485ff82a146101c357806350fadbe01461020057806352ce77a41461023d576100e8565b8063107046bd146100ed5780631af94b51146101325780631e1553981461015b575b600080fd5b3480156100f957600080fd5b50610114600480360381019061010f9190611df1565b610408565b60405161012999989796959493929190611f90565b60405180910390f35b34801561013e57600080fd5b5061015960048036038101906101549190612279565b610628565b005b34801561016757600080fd5b50610182600480360381019061017d91906123b7565b6108bd565b60405161018f91906123f7565b60405180910390f35b3480156101a457600080fd5b506101ad6108ec565b6040516101ba9190612412565b60405180910390f35b3480156101cf57600080fd5b506101ea60048036038101906101e5919061242d565b6108f2565b6040516101f7919061246d565b60405180910390f35b34801561020c57600080fd5b5061022760048036038101906102229190611df1565b610940565b6040516102349190612412565b60405180910390f35b34801561024957600080fd5b50610264600480360381019061025f91906124c1565b610993565b005b610280600480360381019061027b9190611df1565b610cd9565b005b34801561028e57600080fd5b506102a960048036038101906102a49190611df1565b610f7d565b6040516102b7929190612501565b60405180910390f35b3480156102cc57600080fd5b506102d5610fa1565b6040516102e29190612823565b60405180910390f35b3480156102f757600080fd5b50610312600480360381019061030d9190611df1565b6113c9565b60405161031f9190612412565b60405180910390f35b34801561033457600080fd5b5061034f600480360381019061034a919061242d565b6113e9565b005b34801561035d57600080fd5b50610378600480360381019061037391906123b7565b611849565b6040516103859190612412565b60405180910390f35b34801561039a57600080fd5b506103b560048036038101906103b091906123b7565b61186e565b6040516103c29190612412565b60405180910390f35b3480156103d757600080fd5b506103f260048036038101906103ed9190611df1565b6118c9565b6040516103ff9190612934565b60405180910390f35b60016020528060005260406000206000915090508060000154908060010160009054906101000a900473ffffffffffffffffffffffffffffffffffffffff169080600201805461045790612985565b80601f016020809104026020016040519081016040528092919081815260200182805461048390612985565b80156104d05780601f106104a5576101008083540402835291602001916104d0565b820191906000526020600020905b8154815290600101906020018083116104b357829003601f168201915b5050505050908060030180546104e590612985565b80601f016020809104026020016040519081016040528092919081815260200182805461051190612985565b801561055e5780601f106105335761010080835404028352916020019161055e565b820191906000526020600020905b81548152906001019060200180831161054157829003601f168201915b50505050509080600401805461057390612985565b80601f016020809104026020016040519081016040528092919081815260200182805461059f90612985565b80156105ec5780601f106105c1576101008083540402835291602001916105ec565b820191906000526020600020905b8154815290600101906020018083116105cf57829003601f168201915b5050505050908060060154908060070154908060080160009054906101000a900460ff16908060080160019054906101000a900460ff16905089565b600087511161066c576040517f08c379a000000000000000000000000000000000000000000000000000000000815260040161066390612a02565b60405180910390fd5b60008651116106b0576040517f08c379a00000000000000000000000000000000000000000000000000000000081526004016106a790612a6e565b60405180910390fd5b600083116106f3576040517f08c379a00000000000000000000000000000000000000000000000000000000081526004016106ea90612b00565b60405180910390fd5b428211610735576040517f08c379a000000000000000000000000000000000000000000000000000000000815260040161072c90612b6c565b60405180910390fd5b60008081548092919061074790612bbb565b91905055506000600160008054815260200190815260200160002090506000548160000181905550338160010160006101000a81548173ffffffffffffffffffffffffffffffffffffffff021916908373ffffffffffffffffffffffffffffffffffffffff160217905550878160020190816107c39190612daf565b50868160030190816107d59190612daf565b50858160040190816107e79190612daf565b5084816005019080519060200190610800929190611c50565b50838160060181905550828160070181905550818160080160006101000a81548160ff02191690831515021790555060008160080160016101000a81548160ff0219169083600481111561085757610856611f19565b5b02179055503373ffffffffffffffffffffffffffffffffffffffff166000547f5d98a4da9d3933cce60386248780b2b24866c65e35cc3eac58c332f0df98d7c48a8787876040516108ab9493929190612e81565b60405180910390a35050505050505050565b60056020528160005260406000206020528060005260406000206000915091509054906101000a900460ff1681565b60005481565b6004602052816000526040600020818154811061090e57600080fd5b906000526020600020016000915091509054906101000a900473ffffffffffffffffffffffffffffffffffffffff1681565b600080600260008481526020019081526020016000206040518060400160405290816000820154815260200160018201548152505090508060200151816000015161098b9190612ecd565b915050919050565b600360048111156109a7576109a6611f19565b5b60ff168160ff1614806109d157506004808111156109c8576109c7611f19565b5b60ff168160ff16145b610a10576040517f08c379a0000000000000000000000000000000000000000000000000000000008152600401610a0790612f4d565b60405180910390fd5b60006001600084815260200190815260200160002090508060010160009054906101000a900473ffffffffffffffffffffffffffffffffffffffff1673ffffffffffffffffffffffffffffffffffffffff163373ffffffffffffffffffffffffffffffffffffffff1614610ab9576040517f08c379a0000000000000000000000000000000000000000000000000000000008152600401610ab090612fb9565b60405180910390fd5b8160ff166004811115610acf57610ace611f19565b5b8160080160016101000a81548160ff02191690836004811115610af557610af4611f19565b5b0217905550600060046000858152602001908152602001600020805480602002602001604051908101604052809291908181526020018280548015610b8f57602002820191906000526020600020905b8160009054906101000a900473ffffffffffffffffffffffffffffffffffffffff1673ffffffffffffffffffffffffffffffffffffffff1681526020019060010190808311610b45575b5050505050905060005b8151811015610cd2576000828281518110610bb757610bb6612fd9565b5b6020026020010151905060006003600088815260200190815260200160002060008373ffffffffffffffffffffffffffffffffffffffff1673ffffffffffffffffffffffffffffffffffffffff1681526020019081526020016000205490506000811115610cbd5760006003600089815260200190815260200160002060008473ffffffffffffffffffffffffffffffffffffffff1673ffffffffffffffffffffffffffffffffffffffff168152602001908152602001600020819055508173ffffffffffffffffffffffffffffffffffffffff166108fc829081150290604051600060405180830381858888f19350505050158015610cbb573d6000803e3d6000fd5b505b50508080610cca90612bbb565b915050610b99565b5050505050565b60003411610d1c576040517f08c379a0000000000000000000000000000000000000000000000000000000008152600401610d1390613054565b60405180910390fd5b60006004811115610d3057610d2f611f19565b5b6001600083815260200190815260200160002060080160019054906101000a900460ff166004811115610d6657610d65611f19565b5b14610da6576040517f08c379a0000000000000000000000000000000000000000000000000000000008152600401610d9d906130c0565b60405180910390fd5b346003600083815260200190815260200160002060003373ffffffffffffffffffffffffffffffffffffffff1673ffffffffffffffffffffffffffffffffffffffff1681526020019081526020016000206000828254610e0691906130e0565b9250508190555034600260008381526020019081526020016000206000016000828254610e3391906130e0565b925050819055506005600082815260200190815260200160002060003373ffffffffffffffffffffffffffffffffffffffff1673ffffffffffffffffffffffffffffffffffffffff16815260200190815260200160002060009054906101000a900460ff16610f7a5760046000828152602001908152602001600020339080600181540180825580915050600190039060005260206000200160009091909190916101000a81548173ffffffffffffffffffffffffffffffffffffffff021916908373ffffffffffffffffffffffffffffffffffffffff16021790555060016005600083815260200190815260200160002060003373ffffffffffffffffffffffffffffffffffffffff1673ffffffffffffffffffffffffffffffffffffffff16815260200190815260200160002060006101000a81548160ff0219169083151502179055505b50565b60026020528060005260406000206000915090508060000154908060010154905082565b60606000805467ffffffffffffffff811115610fc057610fbf61203c565b5b604051908082528060200260200182016040528015610ff957816020015b610fe6611ca9565b815260200190600190039081610fde5790505b5090506000600190505b60005481116113c1576001600082815260200190815260200160002060405180610140016040529081600082015481526020016001820160009054906101000a900473ffffffffffffffffffffffffffffffffffffffff1673ffffffffffffffffffffffffffffffffffffffff1673ffffffffffffffffffffffffffffffffffffffff16815260200160028201805461109b90612985565b80601f01602080910402602001604051908101604052809291908181526020018280546110c790612985565b80156111145780601f106110e957610100808354040283529160200191611114565b820191906000526020600020905b8154815290600101906020018083116110f757829003601f168201915b5050505050815260200160038201805461112d90612985565b80601f016020809104026020016040519081016040528092919081815260200182805461115990612985565b80156111a65780601f1061117b576101008083540402835291602001916111a6565b820191906000526020600020905b81548152906001019060200180831161118957829003601f168201915b505050505081526020016004820180546111bf90612985565b80601f01602080910402602001604051908101604052809291908181526020018280546111eb90612985565b80156112385780601f1061120d57610100808354040283529160200191611238565b820191906000526020600020905b81548152906001019060200180831161121b57829003601f168201915b5050505050815260200160058201805480602002602001604051908101604052809291908181526020016000905b8282101561131257838290600052602060002001805461128590612985565b80601f01602080910402602001604051908101604052809291908181526020018280546112b190612985565b80156112fe5780601f106112d3576101008083540402835291602001916112fe565b820191906000526020600020905b8154815290600101906020018083116112e157829003601f168201915b505050505081526020019060010190611266565b50505050815260200160068201548152602001600782015481526020016008820160009054906101000a900460ff161515151581526020016008820160019054906101000a900460ff16600481111561136e5761136d611f19565b5b60048111156113805761137f611f19565b5b81525050826001836113929190612ecd565b815181106113a3576113a2612fd9565b5b602002602001018190525080806113b990612bbb565b915050611003565b508091505090565b600060026000838152602001908152602001600020600001549050919050565b600181111561142d576040517f08c379a000000000000000000000000000000000000000000000000000000000815260040161142490613160565b60405180910390fd5b60006001600084815260200190815260200160002090503373ffffffffffffffffffffffffffffffffffffffff168160010160009054906101000a900473ffffffffffffffffffffffffffffffffffffffff1673ffffffffffffffffffffffffffffffffffffffff16146114d6576040517f08c379a00000000000000000000000000000000000000000000000000000000081526004016114cd906131cc565b60405180910390fd5b60006002600085815260200190815260200160002090506000816001015482600001546115039190612ecd565b905060008111611548576040517f08c379a000000000000000000000000000000000000000000000000000000000815260040161153f90613238565b60405180910390fd5b600084826115569190613258565b90506000811161159b576040517f08c379a0000000000000000000000000000000000000000000000000000000008152600401611592906132e6565b60405180910390fd5b60006004600088815260200190815260200160002080548060200260200160405190810160405280929190818152602001828054801561163057602002820191906000526020600020905b8160009054906101000a900473ffffffffffffffffffffffffffffffffffffffff1673ffffffffffffffffffffffffffffffffffffffff16815260200190600101908083116115e6575b5050505050905060005b815181101561174e57600082828151811061165857611657612fd9565b5b602002602001015190506000600360008b815260200190815260200160002060008373ffffffffffffffffffffffffffffffffffffffff1673ffffffffffffffffffffffffffffffffffffffff168152602001908152602001600020549050600081111561173957600089826116ce9190613258565b905080600360008d815260200190815260200160002060008573ffffffffffffffffffffffffffffffffffffffff1673ffffffffffffffffffffffffffffffffffffffff16815260200190815260200160002060008282546117309190612ecd565b92505081905550505b5050808061174690612bbb565b91505061163a565b506001600481111561176357611762611f19565b5b8560080160019054906101000a900460ff16600481111561178757611786611f19565b5b146117ba5760018560080160016101000a81548160ff021916908360048111156117b4576117b3611f19565b5b02179055505b818460010160008282546117ce91906130e0565b925050819055508460010160009054906101000a900473ffffffffffffffffffffffffffffffffffffffff1673ffffffffffffffffffffffffffffffffffffffff166108fc839081150290604051600060405180830381858888f1935050505015801561183f573d6000803e3d6000fd5b5050505050505050565b6003602052816000526040600020602052806000526040600020600091509150505481565b60006003600084815260200190815260200160002060008373ffffffffffffffffffffffffffffffffffffffff1673ffffffffffffffffffffffffffffffffffffffff16815260200190815260200160002054905092915050565b6118d1611ca9565b6001600083815260200190815260200160002060405180610140016040529081600082015481526020016001820160009054906101000a900473ffffffffffffffffffffffffffffffffffffffff1673ffffffffffffffffffffffffffffffffffffffff1673ffffffffffffffffffffffffffffffffffffffff16815260200160028201805461196090612985565b80601f016020809104026020016040519081016040528092919081815260200182805461198c90612985565b80156119d95780601f106119ae576101008083540402835291602001916119d9565b820191906000526020600020905b8154815290600101906020018083116119bc57829003601f168201915b505050505081526020016003820180546119f290612985565b80601f0160208091040260200160405190810160405280929190818152602001828054611a1e90612985565b8015611a6b5780601f10611a4057610100808354040283529160200191611a6b565b820191906000526020600020905b815481529060010190602001808311611a4e57829003601f168201915b50505050508152602001600482018054611a8490612985565b80601f0160208091040260200160405190810160405280929190818152602001828054611ab090612985565b8015611afd5780601f10611ad257610100808354040283529160200191611afd565b820191906000526020600020905b815481529060010190602001808311611ae057829003601f168201915b5050505050815260200160058201805480602002602001604051908101604052809291908181526020016000905b82821015611bd7578382906000526020600020018054611b4a90612985565b80601f0160208091040260200160405190810160405280929190818152602001828054611b7690612985565b8015611bc35780601f10611b9857610100808354040283529160200191611bc3565b820191906000526020600020905b815481529060010190602001808311611ba657829003601f168201915b505050505081526020019060010190611b2b565b50505050815260200160068201548152602001600782015481526020016008820160009054906101000a900460ff161515151581526020016008820160019054906101000a900460ff166004811115611c3357611c32611f19565b5b6004811115611c4557611c44611f19565b5b815250509050919050565b828054828255906000526020600020908101928215611c98579160200282015b82811115611c97578251829081611c879190612daf565b5091602001919060010190611c70565b5b509050611ca59190611d26565b5090565b60405180610140016040528060008152602001600073ffffffffffffffffffffffffffffffffffffffff16815260200160608152602001606081526020016060815260200160608152602001600081526020016000815260200160001515815260200160006004811115611d2057611d1f611f19565b5b81525090565b5b80821115611d465760008181611d3d9190611d4a565b50600101611d27565b5090565b508054611d5690612985565b6000825580601f10611d685750611d87565b601f016020900490600052602060002090810190611d869190611d8a565b5b50565b5b80821115611da3576000816000905550600101611d8b565b5090565b6000604051905090565b600080fd5b600080fd5b6000819050919050565b611dce81611dbb565b8114611dd957600080fd5b50565b600081359050611deb81611dc5565b92915050565b600060208284031215611e0757611e06611db1565b5b6000611e1584828501611ddc565b91505092915050565b611e2781611dbb565b82525050565b600073ffffffffffffffffffffffffffffffffffffffff82169050919050565b6000611e5882611e2d565b9050919050565b611e6881611e4d565b82525050565b600081519050919050565b600082825260208201905092915050565b60005b83811015611ea8578082015181840152602081019050611e8d565b60008484015250505050565b6000601f19601f8301169050919050565b6000611ed082611e6e565b611eda8185611e79565b9350611eea818560208601611e8a565b611ef381611eb4565b840191505092915050565b60008115159050919050565b611f1381611efe565b82525050565b7f4e487b7100000000000000000000000000000000000000000000000000000000600052602160045260246000fd5b60058110611f5957611f58611f19565b5b50565b6000819050611f6a82611f48565b919050565b6000611f7a82611f5c565b9050919050565b611f8a81611f6f565b82525050565b600061012082019050611fa6600083018c611e1e565b611fb3602083018b611e5f565b8181036040830152611fc5818a611ec5565b90508181036060830152611fd98189611ec5565b90508181036080830152611fed8188611ec5565b9050611ffc60a0830187611e1e565b61200960c0830186611e1e565b61201660e0830185611f0a565b612024610100830184611f81565b9a9950505050505050505050565b600080fd5b600080fd5b7f4e487b7100000000000000000000000000000000000000000000000000000000600052604160045260246000fd5b61207482611eb4565b810181811067ffffffffffffffff821117156120935761209261203c565b5b80604052505050565b60006120a6611da7565b90506120b2828261206b565b919050565b600067ffffffffffffffff8211156120d2576120d161203c565b5b6120db82611eb4565b9050602081019050919050565b82818337600083830152505050565b600061210a612105846120b7565b61209c565b90508281526020810184848401111561212657612125612037565b5b6121318482856120e8565b509392505050565b600082601f83011261214e5761214d612032565b5b813561215e8482602086016120f7565b91505092915050565b600067ffffffffffffffff8211156121825761218161203c565b5b602082029050602081019050919050565b600080fd5b60006121ab6121a684612167565b61209c565b905080838252602082019050602084028301858111156121ce576121cd612193565b5b835b8181101561221557803567ffffffffffffffff8111156121f3576121f2612032565b5b8086016122008982612139565b855260208501945050506020810190506121d0565b5050509392505050565b600082601f83011261223457612233612032565b5b8135612244848260208601612198565b91505092915050565b61225681611efe565b811461226157600080fd5b50565b6000813590506122738161224d565b92915050565b600080600080600080600060e0888a03121561229857612297611db1565b5b600088013567ffffffffffffffff8111156122b6576122b5611db6565b5b6122c28a828b01612139565b975050602088013567ffffffffffffffff8111156122e3576122e2611db6565b5b6122ef8a828b01612139565b965050604088013567ffffffffffffffff8111156123105761230f611db6565b5b61231c8a828b01612139565b955050606088013567ffffffffffffffff81111561233d5761233c611db6565b5b6123498a828b0161221f565b945050608061235a8a828b01611ddc565b93505060a061236b8a828b01611ddc565b92505060c061237c8a828b01612264565b91505092959891949750929550565b61239481611e4d565b811461239f57600080fd5b50565b6000813590506123b18161238b565b92915050565b600080604083850312156123ce576123cd611db1565b5b60006123dc85828601611ddc565b92505060206123ed858286016123a2565b9150509250929050565b600060208201905061240c6000830184611f0a565b92915050565b60006020820190506124276000830184611e1e565b92915050565b6000806040838503121561244457612443611db1565b5b600061245285828601611ddc565b925050602061246385828601611ddc565b9150509250929050565b60006020820190506124826000830184611e5f565b92915050565b600060ff82169050919050565b61249e81612488565b81146124a957600080fd5b50565b6000813590506124bb81612495565b92915050565b600080604083850312156124d8576124d7611db1565b5b60006124e685828601611ddc565b92505060206124f7858286016124ac565b9150509250929050565b60006040820190506125166000830185611e1e565b6125236020830184611e1e565b9392505050565b600081519050919050565b600082825260208201905092915050565b6000819050602082019050919050565b61255f81611dbb565b82525050565b61256e81611e4d565b82525050565b600082825260208201905092915050565b600061259082611e6e565b61259a8185612574565b93506125aa818560208601611e8a565b6125b381611eb4565b840191505092915050565b600081519050919050565b600082825260208201905092915050565b6000819050602082019050919050565b60006125f68383612585565b905092915050565b6000602082019050919050565b6000612616826125be565b61262081856125c9565b935083602082028501612632856125da565b8060005b8581101561266e578484038952815161264f85826125ea565b945061265a836125fe565b925060208a01995050600181019050612636565b50829750879550505050505092915050565b61268981611efe565b82525050565b61269881611f6f565b82525050565b6000610140830160008301516126b76000860182612556565b5060208301516126ca6020860182612565565b50604083015184820360408601526126e28282612585565b915050606083015184820360608601526126fc8282612585565b915050608083015184820360808601526127168282612585565b91505060a083015184820360a0860152612730828261260b565b91505060c083015161274560c0860182612556565b5060e083015161275860e0860182612556565b5061010083015161276d610100860182612680565b5061012083015161278261012086018261268f565b508091505092915050565b6000612799838361269e565b905092915050565b6000602082019050919050565b60006127b98261252a565b6127c38185612535565b9350836020820285016127d585612546565b8060005b8581101561281157848403895281516127f2858261278d565b94506127fd836127a1565b925060208a019950506001810190506127d9565b50829750879550505050505092915050565b6000602082019050818103600083015261283d81846127ae565b905092915050565b60006101408301600083015161285e6000860182612556565b5060208301516128716020860182612565565b50604083015184820360408601526128898282612585565b915050606083015184820360608601526128a38282612585565b915050608083015184820360808601526128bd8282612585565b91505060a083015184820360a08601526128d7828261260b565b91505060c08301516128ec60c0860182612556565b5060e08301516128ff60e0860182612556565b50610100830151612914610100860182612680565b5061012083015161292961012086018261268f565b508091505092915050565b6000602082019050818103600083015261294e8184612845565b905092915050565b7f4e487b7100000000000000000000000000000000000000000000000000000000600052602260045260246000fd5b6000600282049050600182168061299d57607f821691505b6020821081036129b0576129af612956565b5b50919050565b7f5469746c652069732072657175697265642e0000000000000000000000000000600082015250565b60006129ec601283611e79565b91506129f7826129b6565b602082019050919050565b60006020820190508181036000830152612a1b816129df565b9050919050565b7f4465736372697074696f6e2069732072657175697265642e0000000000000000600082015250565b6000612a58601883611e79565b9150612a6382612a22565b602082019050919050565b60006020820190508181036000830152612a8781612a4b565b9050919050565b7f476f616c20616d6f756e74206d7573742062652067726561746572207468616e60008201527f207a65726f2e0000000000000000000000000000000000000000000000000000602082015250565b6000612aea602683611e79565b9150612af582612a8e565b604082019050919050565b60006020820190508181036000830152612b1981612add565b9050919050565b7f446561646c696e65206d7573742062652061206675747572652074696d652e00600082015250565b6000612b56601f83611e79565b9150612b6182612b20565b602082019050919050565b60006020820190508181036000830152612b8581612b49565b9050919050565b7f4e487b7100000000000000000000000000000000000000000000000000000000600052601160045260246000fd5b6000612bc682611dbb565b91507fffffffffffffffffffffffffffffffffffffffffffffffffffffffffffffffff8203612bf857612bf7612b8c565b5b600182019050919050565b60008190508160005260206000209050919050565b60006020601f8301049050919050565b600082821b905092915050565b600060088302612c657fffffffffffffffffffffffffffffffffffffffffffffffffffffffffffffffff82612c28565b612c6f8683612c28565b95508019841693508086168417925050509392505050565b6000819050919050565b6000612cac612ca7612ca284611dbb565b612c87565b611dbb565b9050919050565b6000819050919050565b612cc683612c91565b612cda612cd282612cb3565b848454612c35565b825550505050565b600090565b612cef612ce2565b612cfa818484612cbd565b505050565b5b81811015612d1e57612d13600082612ce7565b600181019050612d00565b5050565b601f821115612d6357612d3481612c03565b612d3d84612c18565b81016020851015612d4c578190505b612d60612d5885612c18565b830182612cff565b50505b505050565b600082821c905092915050565b6000612d8660001984600802612d68565b1980831691505092915050565b6000612d9f8383612d75565b9150826002028217905092915050565b612db882611e6e565b67ffffffffffffffff811115612dd157612dd061203c565b5b612ddb8254612985565b612de6828285612d22565b600060209050601f831160018114612e195760008415612e07578287015190505b612e118582612d93565b865550612e79565b601f198416612e2786612c03565b60005b82811015612e4f57848901518255600182019150602085019450602081019050612e2a565b86831015612e6c5784890151612e68601f891682612d75565b8355505b6001600288020188555050505b505050505050565b60006080820190508181036000830152612e9b8187611ec5565b9050612eaa6020830186611e1e565b612eb76040830185611e1e565b612ec46060830184611f0a565b95945050505050565b6000612ed882611dbb565b9150612ee383611dbb565b9250828203905081811115612efb57612efa612b8c565b5b92915050565b7f4f6e6c79204641494c4544206f722043414e43454c4c454420616c6c6f776564600082015250565b6000612f37602083611e79565b9150612f4282612f01565b602082019050919050565b60006020820190508181036000830152612f6681612f2a565b9050919050565b7f4f6e6c792063726561746f722063616e206368616e6765207374617475730000600082015250565b6000612fa3601e83611e79565b9150612fae82612f6d565b602082019050919050565b60006020820190508181036000830152612fd281612f96565b9050919050565b7f4e487b7100000000000000000000000000000000000000000000000000000000600052603260045260246000fd5b7f4d7573742073656e642045544800000000000000000000000000000000000000600082015250565b600061303e600d83611e79565b915061304982613008565b602082019050919050565b6000602082019050818103600083015261306d81613031565b9050919050565b7f50726f6a656374206e6f742066756e6472616973696e67000000000000000000600082015250565b60006130aa601783611e79565b91506130b582613074565b602082019050919050565b600060208201905081810360008301526130d98161309d565b9050919050565b60006130eb82611dbb565b91506130f683611dbb565b925082820190508082111561310e5761310d612b8c565b5b92915050565b7f496e76616c69642070657263656e746167650000000000000000000000000000600082015250565b600061314a601283611e79565b915061315582613114565b602082019050919050565b600060208201905081810360008301526131798161313d565b9050919050565b7f4f6e6c792063726561746f722063616e20776974686472617700000000000000600082015250565b60006131b6601983611e79565b91506131c182613180565b602082019050919050565b600060208201905081810360008301526131e5816131a9565b9050919050565b7f4e6f20617661696c61626c652066756e64730000000000000000000000000000600082015250565b6000613222601283611e79565b915061322d826131ec565b602082019050919050565b6000602082019050818103600083015261325181613215565b9050919050565b600061326382611dbb565b915061326e83611dbb565b925082820261327c81611dbb565b9150828204841483151761329357613292612b8c565b5b5092915050565b7f5061796f757420746f6f20736d616c6c00000000000000000000000000000000600082015250565b60006132d0601083611e79565b91506132db8261329a565b602082019050919050565b600060208201905081810360008301526132ff816132c3565b905091905056fea2646970667358221220c86d24b0fd9c79c1266e612333c37331d2ece53e83d4a1f82a882f40bcc1776964736f6c63430008130033",
  "immutableReferences": {},
  "source": "// SPDX-License-Identifier: MIT\npragma solidity ^0.8.19;\n\nimport \"./FundStorage.sol\";\nimport \"./ProjectManager.sol\";\nimport \"./FundLogic.sol\";\n\ncontract DFund is FundStorage, ProjectManager, FundLogic {\n    //  .    \n}\n",
  "sourcePath": "/Users/kimtaewoo/Desktop/D-Fund/src/contracts/DFund.sol",
  "compiler": {
    "name": "solc",
    "version": "0.8.19+commit.7dd6d404.Emscripten.clang"
  },
  "schemaVersion": "3.4.16",
  "updatedAt": "2025-05-31T12:28:22.139Z",
  "networkType": "ethereum",
  "devdoc": {
    "kind": "dev",
    "methods": {},
    "version": 1
  },
  "userdoc": {
    "kind": "user",
    "methods": {},
    "version": 1
  }
}