{
  "contractName": "DFund",
  "abi": [
    {
      "anonymous": false,
      "inputs": [
        {
          "indexed": true,
          "internalType": "uint256",
          "name": "id",
          "type": "uint256"
        },
        {
          "indexed": true,
          "internalType": "address",
          "name": "creator",
          "type": "address"
        },
        {
          "indexed": false,
          "internalType": "string",
          "name": "title",
          "type": "string"
        },
        {
          "indexed": false,
          "internalType": "uint256",
          "name": "goalAmount",
          "type": "uint256"
        },
        {
          "indexed": false,
          "internalType": "uint256",
          "name": "deadline",
          "type": "uint256"
        },
        {
          "indexed": false,
          "internalType": "bool",
          "name": "expertReviewRequested",
          "type": "bool"
        }
      ],
      "name": "ProjectRegistered",
      "type": "event"
    },
    {
      "inputs": [
        {
          "internalType": "uint256",
          "name": "",
          "type": "uint256"
        },
        {
          "internalType": "address",
          "name": "",
          "type": "address"
        }
      ],
      "name": "donorBalances",
      "outputs": [
        {
          "internalType": "uint256",
          "name": "",
          "type": "uint256"
        }
      ],
      "stateMutability": "view",
      "type": "function",
      "constant": true
    },
    {
      "inputs": [
        {
          "internalType": "uint256",
          "name": "",
          "type": "uint256"
        },
        {
          "internalType": "address",
          "name": "",
          "type": "address"
        }
      ],
      "name": "hasDonated",
      "outputs": [
        {
          "internalType": "bool",
          "name": "",
          "type": "bool"
        }
      ],
      "stateMutability": "view",
      "type": "function",
      "constant": true
    },
    {
      "inputs": [],
      "name": "projectCount",
      "outputs": [
        {
          "internalType": "uint256",
          "name": "",
          "type": "uint256"
        }
      ],
      "stateMutability": "view",
      "type": "function",
      "constant": true
    },
    {
      "inputs": [
        {
          "internalType": "uint256",
          "name": "",
          "type": "uint256"
        },
        {
          "internalType": "uint256",
          "name": "",
          "type": "uint256"
        }
      ],
      "name": "projectDonors",
      "outputs": [
        {
          "internalType": "address",
          "name": "",
          "type": "address"
        }
      ],
      "stateMutability": "view",
      "type": "function",
      "constant": true
    },
    {
      "inputs": [
        {
          "internalType": "uint256",
          "name": "",
          "type": "uint256"
        }
      ],
      "name": "projectFunds",
      "outputs": [
        {
          "internalType": "uint256",
          "name": "totalDonated",
          "type": "uint256"
        },
        {
          "internalType": "uint256",
          "name": "transferredToCreator",
          "type": "uint256"
        }
      ],
      "stateMutability": "view",
      "type": "function",
      "constant": true
    },
    {
      "inputs": [
        {
          "internalType": "uint256",
          "name": "",
          "type": "uint256"
        }
      ],
      "name": "projects",
      "outputs": [
        {
          "internalType": "uint256",
          "name": "id",
          "type": "uint256"
        },
        {
          "internalType": "address",
          "name": "creator",
          "type": "address"
        },
        {
          "internalType": "string",
          "name": "title",
          "type": "string"
        },
        {
          "internalType": "string",
          "name": "description",
          "type": "string"
        },
        {
          "internalType": "string",
          "name": "image",
          "type": "string"
        },
        {
          "internalType": "uint256",
          "name": "goalAmount",
          "type": "uint256"
        },
        {
          "internalType": "uint256",
          "name": "deadline",
          "type": "uint256"
        },
        {
          "internalType": "bool",
          "name": "expertReviewRequested",
          "type": "bool"
        },
        {
          "internalType": "enum DFund.ProjectStatus",
          "name": "status",
          "type": "uint8"
        }
      ],
      "stateMutability": "view",
      "type": "function",
      "constant": true
    },
    {
      "inputs": [
        {
          "internalType": "string",
          "name": "_title",
          "type": "string"
        },
        {
          "internalType": "string",
          "name": "_description",
          "type": "string"
        },
        {
          "internalType": "string",
          "name": "_image",
          "type": "string"
        },
        {
          "internalType": "string[]",
          "name": "_detailImages",
          "type": "string[]"
        },
        {
          "internalType": "uint256",
          "name": "_goalAmount",
          "type": "uint256"
        },
        {
          "internalType": "uint256",
          "name": "_deadline",
          "type": "uint256"
        },
        {
          "internalType": "bool",
          "name": "_expertReviewRequested",
          "type": "bool"
        }
      ],
      "name": "registerProject",
      "outputs": [],
      "stateMutability": "nonpayable",
      "type": "function"
    },
    {
      "inputs": [
        {
          "internalType": "uint256",
          "name": "_id",
          "type": "uint256"
        }
      ],
      "name": "getProject",
      "outputs": [
        {
          "internalType": "uint256",
          "name": "id",
          "type": "uint256"
        },
        {
          "internalType": "address",
          "name": "creator",
          "type": "address"
        },
        {
          "internalType": "string",
          "name": "title",
          "type": "string"
        },
        {
          "internalType": "string",
          "name": "description",
          "type": "string"
        },
        {
          "internalType": "string",
          "name": "image",
          "type": "string"
        },
        {
          "internalType": "string[]",
          "name": "detailImages",
          "type": "string[]"
        },
        {
          "internalType": "uint256",
          "name": "goalAmount",
          "type": "uint256"
        },
        {
          "internalType": "uint256",
          "name": "deadline",
          "type": "uint256"
        },
        {
          "internalType": "bool",
          "name": "expertReviewRequested",
          "type": "bool"
        },
        {
          "internalType": "enum DFund.ProjectStatus",
          "name": "status",
          "type": "uint8"
        }
      ],
      "stateMutability": "view",
      "type": "function",
      "constant": true
    },
    {
      "inputs": [],
      "name": "getAllProjects",
      "outputs": [
        {
          "components": [
            {
              "internalType": "uint256",
              "name": "id",
              "type": "uint256"
            },
            {
              "internalType": "address",
              "name": "creator",
              "type": "address"
            },
            {
              "internalType": "string",
              "name": "title",
              "type": "string"
            },
            {
              "internalType": "string",
              "name": "description",
              "type": "string"
            },
            {
              "internalType": "string",
              "name": "image",
              "type": "string"
            },
            {
              "internalType": "string[]",
              "name": "detailImages",
              "type": "string[]"
            },
            {
              "internalType": "uint256",
              "name": "goalAmount",
              "type": "uint256"
            },
            {
              "internalType": "uint256",
              "name": "deadline",
              "type": "uint256"
            },
            {
              "internalType": "bool",
              "name": "expertReviewRequested",
              "type": "bool"
            },
            {
              "internalType": "enum DFund.ProjectStatus",
              "name": "status",
              "type": "uint8"
            }
          ],
          "internalType": "struct DFund.Project[]",
          "name": "",
          "type": "tuple[]"
        }
      ],
      "stateMutability": "view",
      "type": "function",
      "constant": true
    },
    {
      "inputs": [
        {
          "internalType": "uint256",
          "name": "_projectId",
          "type": "uint256"
        }
      ],
      "name": "donateToProject",
      "outputs": [],
      "stateMutability": "payable",
      "type": "function",
      "payable": true
    },
    {
      "inputs": [
        {
          "internalType": "uint256",
          "name": "_projectId",
          "type": "uint256"
        },
        {
          "internalType": "uint256",
          "name": "_percent",
          "type": "uint256"
        }
      ],
      "name": "releaseFundsToCreator",
      "outputs": [],
      "stateMutability": "nonpayable",
      "type": "function"
    },
    {
      "inputs": [
        {
          "internalType": "uint256",
          "name": "_projectId",
          "type": "uint256"
        },
        {
          "internalType": "address",
          "name": "_donor",
          "type": "address"
        }
      ],
      "name": "getDonorBalance",
      "outputs": [
        {
          "internalType": "uint256",
          "name": "",
          "type": "uint256"
        }
      ],
      "stateMutability": "view",
      "type": "function",
      "constant": true
    },
    {
      "inputs": [
        {
          "internalType": "uint256",
          "name": "_projectId",
          "type": "uint256"
        }
      ],
      "name": "getTotalDonated",
      "outputs": [
        {
          "internalType": "uint256",
          "name": "",
          "type": "uint256"
        }
      ],
      "stateMutability": "view",
      "type": "function",
      "constant": true
    },
    {
      "inputs": [
        {
          "internalType": "uint256",
          "name": "_projectId",
          "type": "uint256"
        }
      ],
      "name": "getRemainingFunds",
      "outputs": [
        {
          "internalType": "uint256",
          "name": "",
          "type": "uint256"
        }
      ],
      "stateMutability": "view",
      "type": "function",
      "constant": true
    },
    {
      "inputs": [
        {
          "internalType": "uint256",
          "name": "_projectId",
          "type": "uint256"
        },
        {
          "internalType": "uint8",
          "name": "newStatus",
          "type": "uint8"
        }
      ],
      "name": "changeProjectStatusAndRefund",
      "outputs": [],
      "stateMutability": "nonpayable",
      "type": "function"
    }
  ],
  "bytecode": "0x60806040526000805534801561001457600080fd5b5061334a806100246000396000f3fe6080604052600436106100e85760003560e01c806356adb06f1161008a578063b1d9fddb11610059578063b1d9fddb14610328578063c8c2dec414610351578063ed043e3e1461038e578063f0f3f2c8146103cb576100e8565b806356adb06f14610266578063794d55601461028257806380d03829146102c0578063a3739f71146102eb576100e8565b806336fbad26116100c657806336fbad2614610198578063485ff82a146101c357806350fadbe01461020057806352ce77a41461023d576100e8565b8063107046bd146100ed5780631af94b51146101325780631e1553981461015b575b600080fd5b3480156100f957600080fd5b50610114600480360381019061010f9190611dd2565b610411565b60405161012999989796959493929190611f71565b60405180910390f35b34801561013e57600080fd5b506101596004803603810190610154919061225a565b610631565b005b34801561016757600080fd5b50610182600480360381019061017d9190612398565b61091e565b60405161018f91906123d8565b60405180910390f35b3480156101a457600080fd5b506101ad61094d565b6040516101ba91906123f3565b60405180910390f35b3480156101cf57600080fd5b506101ea60048036038101906101e5919061240e565b610953565b6040516101f7919061244e565b60405180910390f35b34801561020c57600080fd5b5061022760048036038101906102229190611dd2565b6109a1565b60405161023491906123f3565b60405180910390f35b34801561024957600080fd5b50610264600480360381019061025f91906124a2565b6109f4565b005b610280600480360381019061027b9190611dd2565b610d3a565b005b34801561028e57600080fd5b506102a960048036038101906102a49190611dd2565b610fde565b6040516102b79291906124e2565b60405180910390f35b3480156102cc57600080fd5b506102d5611002565b6040516102e29190612804565b60405180910390f35b3480156102f757600080fd5b50610312600480360381019061030d9190611dd2565b61142a565b60405161031f91906123f3565b60405180910390f35b34801561033457600080fd5b5061034f600480360381019061034a919061240e565b61144a565b005b34801561035d57600080fd5b5061037860048036038101906103739190612398565b6118aa565b60405161038591906123f3565b60405180910390f35b34801561039a57600080fd5b506103b560048036038101906103b09190612398565b6118cf565b6040516103c291906123f3565b60405180910390f35b3480156103d757600080fd5b506103f260048036038101906103ed9190611dd2565b61192a565b6040516104089a999897969594939291906128ac565b60405180910390f35b60016020528060005260406000206000915090508060000154908060010160009054906101000a900473ffffffffffffffffffffffffffffffffffffffff169080600201805461046090612993565b80601f016020809104026020016040519081016040528092919081815260200182805461048c90612993565b80156104d95780601f106104ae576101008083540402835291602001916104d9565b820191906000526020600020905b8154815290600101906020018083116104bc57829003601f168201915b5050505050908060030180546104ee90612993565b80601f016020809104026020016040519081016040528092919081815260200182805461051a90612993565b80156105675780601f1061053c57610100808354040283529160200191610567565b820191906000526020600020905b81548152906001019060200180831161054a57829003601f168201915b50505050509080600401805461057c90612993565b80601f01602080910402602001604051908101604052809291908181526020018280546105a890612993565b80156105f55780601f106105ca576101008083540402835291602001916105f5565b820191906000526020600020905b8154815290600101906020018083116105d857829003601f168201915b5050505050908060060154908060070154908060080160009054906101000a900460ff16908060080160019054906101000a900460ff16905089565b6000875111610675576040517f08c379a000000000000000000000000000000000000000000000000000000000815260040161066c90612a10565b60405180910390fd5b60008651116106b9576040517f08c379a00000000000000000000000000000000000000000000000000000000081526004016106b090612a7c565b60405180910390fd5b600083116106fc576040517f08c379a00000000000000000000000000000000000000000000000000000000081526004016106f390612b0e565b60405180910390fd5b42821161073e576040517f08c379a000000000000000000000000000000000000000000000000000000000815260040161073590612b7a565b60405180910390fd5b60008081548092919061075090612bc9565b91905055506000600160008054815260200190815260200160002090506000548160000181905550338160010160006101000a81548173ffffffffffffffffffffffffffffffffffffffff021916908373ffffffffffffffffffffffffffffffffffffffff160217905550878160020190816107cc9190612dbd565b50868160030190816107de9190612dbd565b50858160040190816107f09190612dbd565b50838160060181905550828160070181905550818160080160006101000a81548160ff02191690831515021790555060008160080160016101000a81548160ff0219169083600481111561084757610846611efa565b5b021790555060005b85518110156108bc578160050186828151811061086f5761086e612e8f565b5b60200260200101519080600181540180825580915050600190039060005260206000200160009091909190915090816108a89190612dbd565b5080806108b490612bc9565b91505061084f565b503373ffffffffffffffffffffffffffffffffffffffff166000547f5d98a4da9d3933cce60386248780b2b24866c65e35cc3eac58c332f0df98d7c48a87878760405161090c9493929190612ebe565b60405180910390a35050505050505050565b60056020528160005260406000206020528060005260406000206000915091509054906101000a900460ff1681565b60005481565b6004602052816000526040600020818154811061096f57600080fd5b906000526020600020016000915091509054906101000a900473ffffffffffffffffffffffffffffffffffffffff1681565b60008060026000848152602001908152602001600020604051806040016040529081600082015481526020016001820154815250509050806020015181600001516109ec9190612f0a565b915050919050565b60036004811115610a0857610a07611efa565b5b60ff168160ff161480610a325750600480811115610a2957610a28611efa565b5b60ff168160ff16145b610a71576040517f08c379a0000000000000000000000000000000000000000000000000000000008152600401610a6890612f8a565b60405180910390fd5b60006001600084815260200190815260200160002090508060010160009054906101000a900473ffffffffffffffffffffffffffffffffffffffff1673ffffffffffffffffffffffffffffffffffffffff163373ffffffffffffffffffffffffffffffffffffffff1614610b1a576040517f08c379a0000000000000000000000000000000000000000000000000000000008152600401610b1190612ff6565b60405180910390fd5b8160ff166004811115610b3057610b2f611efa565b5b8160080160016101000a81548160ff02191690836004811115610b5657610b55611efa565b5b0217905550600060046000858152602001908152602001600020805480602002602001604051908101604052809291908181526020018280548015610bf057602002820191906000526020600020905b8160009054906101000a900473ffffffffffffffffffffffffffffffffffffffff1673ffffffffffffffffffffffffffffffffffffffff1681526020019060010190808311610ba6575b5050505050905060005b8151811015610d33576000828281518110610c1857610c17612e8f565b5b6020026020010151905060006003600088815260200190815260200160002060008373ffffffffffffffffffffffffffffffffffffffff1673ffffffffffffffffffffffffffffffffffffffff1681526020019081526020016000205490506000811115610d1e5760006003600089815260200190815260200160002060008473ffffffffffffffffffffffffffffffffffffffff1673ffffffffffffffffffffffffffffffffffffffff168152602001908152602001600020819055508173ffffffffffffffffffffffffffffffffffffffff166108fc829081150290604051600060405180830381858888f19350505050158015610d1c573d6000803e3d6000fd5b505b50508080610d2b90612bc9565b915050610bfa565b5050505050565b60003411610d7d576040517f08c379a0000000000000000000000000000000000000000000000000000000008152600401610d7490613062565b60405180910390fd5b60006004811115610d9157610d90611efa565b5b6001600083815260200190815260200160002060080160019054906101000a900460ff166004811115610dc757610dc6611efa565b5b14610e07576040517f08c379a0000000000000000000000000000000000000000000000000000000008152600401610dfe906130ce565b60405180910390fd5b346003600083815260200190815260200160002060003373ffffffffffffffffffffffffffffffffffffffff1673ffffffffffffffffffffffffffffffffffffffff1681526020019081526020016000206000828254610e6791906130ee565b9250508190555034600260008381526020019081526020016000206000016000828254610e9491906130ee565b925050819055506005600082815260200190815260200160002060003373ffffffffffffffffffffffffffffffffffffffff1673ffffffffffffffffffffffffffffffffffffffff16815260200190815260200160002060009054906101000a900460ff16610fdb5760046000828152602001908152602001600020339080600181540180825580915050600190039060005260206000200160009091909190916101000a81548173ffffffffffffffffffffffffffffffffffffffff021916908373ffffffffffffffffffffffffffffffffffffffff16021790555060016005600083815260200190815260200160002060003373ffffffffffffffffffffffffffffffffffffffff1673ffffffffffffffffffffffffffffffffffffffff16815260200190815260200160002060006101000a81548160ff0219169083151502179055505b50565b60026020528060005260406000206000915090508060000154908060010154905082565b60606000805467ffffffffffffffff8111156110215761102061201d565b5b60405190808252806020026020018201604052801561105a57816020015b611047611d0b565b81526020019060019003908161103f5790505b5090506000600190505b6000548111611422576001600082815260200190815260200160002060405180610140016040529081600082015481526020016001820160009054906101000a900473ffffffffffffffffffffffffffffffffffffffff1673ffffffffffffffffffffffffffffffffffffffff1673ffffffffffffffffffffffffffffffffffffffff1681526020016002820180546110fc90612993565b80601f016020809104026020016040519081016040528092919081815260200182805461112890612993565b80156111755780601f1061114a57610100808354040283529160200191611175565b820191906000526020600020905b81548152906001019060200180831161115857829003601f168201915b5050505050815260200160038201805461118e90612993565b80601f01602080910402602001604051908101604052809291908181526020018280546111ba90612993565b80156112075780601f106111dc57610100808354040283529160200191611207565b820191906000526020600020905b8154815290600101906020018083116111ea57829003601f168201915b5050505050815260200160048201805461122090612993565b80601f016020809104026020016040519081016040528092919081815260200182805461124c90612993565b80156112995780601f1061126e57610100808354040283529160200191611299565b820191906000526020600020905b81548152906001019060200180831161127c57829003601f168201915b5050505050815260200160058201805480602002602001604051908101604052809291908181526020016000905b828210156113735783829060005260206000200180546112e690612993565b80601f016020809104026020016040519081016040528092919081815260200182805461131290612993565b801561135f5780601f106113345761010080835404028352916020019161135f565b820191906000526020600020905b81548152906001019060200180831161134257829003601f168201915b5050505050815260200190600101906112c7565b50505050815260200160068201548152602001600782015481526020016008820160009054906101000a900460ff161515151581526020016008820160019054906101000a900460ff1660048111156113cf576113ce611efa565b5b60048111156113e1576113e0611efa565b5b81525050826001836113f39190612f0a565b8151811061140457611403612e8f565b5b6020026020010181905250808061141a90612bc9565b915050611064565b508091505090565b600060026000838152602001908152602001600020600001549050919050565b600181111561148e576040517f08c379a00000000000000000000000000000000000000000000000000000000081526004016114859061316e565b60405180910390fd5b60006001600084815260200190815260200160002090503373ffffffffffffffffffffffffffffffffffffffff168160010160009054906101000a900473ffffffffffffffffffffffffffffffffffffffff1673ffffffffffffffffffffffffffffffffffffffff1614611537576040517f08c379a000000000000000000000000000000000000000000000000000000000815260040161152e906131da565b60405180910390fd5b60006002600085815260200190815260200160002090506000816001015482600001546115649190612f0a565b9050600081116115a9576040517f08c379a00000000000000000000000000000000000000000000000000000000081526004016115a090613246565b60405180910390fd5b600084826115b79190613266565b9050600081116115fc576040517f08c379a00000000000000000000000000000000000000000000000000000000081526004016115f3906132f4565b60405180910390fd5b60006004600088815260200190815260200160002080548060200260200160405190810160405280929190818152602001828054801561169157602002820191906000526020600020905b8160009054906101000a900473ffffffffffffffffffffffffffffffffffffffff1673ffffffffffffffffffffffffffffffffffffffff1681526020019060010190808311611647575b5050505050905060005b81518110156117af5760008282815181106116b9576116b8612e8f565b5b602002602001015190506000600360008b815260200190815260200160002060008373ffffffffffffffffffffffffffffffffffffffff1673ffffffffffffffffffffffffffffffffffffffff168152602001908152602001600020549050600081111561179a576000898261172f9190613266565b905080600360008d815260200190815260200160002060008573ffffffffffffffffffffffffffffffffffffffff1673ffffffffffffffffffffffffffffffffffffffff16815260200190815260200160002060008282546117919190612f0a565b92505081905550505b505080806117a790612bc9565b91505061169b565b50600160048111156117c4576117c3611efa565b5b8560080160019054906101000a900460ff1660048111156117e8576117e7611efa565b5b1461181b5760018560080160016101000a81548160ff0219169083600481111561181557611814611efa565b5b02179055505b8184600101600082825461182f91906130ee565b925050819055508460010160009054906101000a900473ffffffffffffffffffffffffffffffffffffffff1673ffffffffffffffffffffffffffffffffffffffff166108fc839081150290604051600060405180830381858888f193505050501580156118a0573d6000803e3d6000fd5b5050505050505050565b6003602052816000526040600020602052806000526040600020600091509150505481565b60006003600084815260200190815260200160002060008373ffffffffffffffffffffffffffffffffffffffff1673ffffffffffffffffffffffffffffffffffffffff16815260200190815260200160002054905092915050565b6000806060806060806000806000806000600160008d815260200190815260200160002060405180610140016040529081600082015481526020016001820160009054906101000a900473ffffffffffffffffffffffffffffffffffffffff1673ffffffffffffffffffffffffffffffffffffffff1673ffffffffffffffffffffffffffffffffffffffff1681526020016002820180546119ca90612993565b80601f01602080910402602001604051908101604052809291908181526020018280546119f690612993565b8015611a435780601f10611a1857610100808354040283529160200191611a43565b820191906000526020600020905b815481529060010190602001808311611a2657829003601f168201915b50505050508152602001600382018054611a5c90612993565b80601f0160208091040260200160405190810160405280929190818152602001828054611a8890612993565b8015611ad55780601f10611aaa57610100808354040283529160200191611ad5565b820191906000526020600020905b815481529060010190602001808311611ab857829003601f168201915b50505050508152602001600482018054611aee90612993565b80601f0160208091040260200160405190810160405280929190818152602001828054611b1a90612993565b8015611b675780601f10611b3c57610100808354040283529160200191611b67565b820191906000526020600020905b815481529060010190602001808311611b4a57829003601f168201915b5050505050815260200160058201805480602002602001604051908101604052809291908181526020016000905b82821015611c41578382906000526020600020018054611bb490612993565b80601f0160208091040260200160405190810160405280929190818152602001828054611be090612993565b8015611c2d5780601f10611c0257610100808354040283529160200191611c2d565b820191906000526020600020905b815481529060010190602001808311611c1057829003601f168201915b505050505081526020019060010190611b95565b50505050815260200160068201548152602001600782015481526020016008820160009054906101000a900460ff161515151581526020016008820160019054906101000a900460ff166004811115611c9d57611c9c611efa565b5b6004811115611caf57611cae611efa565b5b815250509050806000015181602001518260400151836060015184608001518560a001518660c001518760e001518861010001518961012001519a509a509a509a509a509a509a509a509a509a50509193959799509193959799565b60405180610140016040528060008152602001600073ffffffffffffffffffffffffffffffffffffffff16815260200160608152602001606081526020016060815260200160608152602001600081526020016000815260200160001515815260200160006004811115611d8257611d81611efa565b5b81525090565b6000604051905090565b600080fd5b600080fd5b6000819050919050565b611daf81611d9c565b8114611dba57600080fd5b50565b600081359050611dcc81611da6565b92915050565b600060208284031215611de857611de7611d92565b5b6000611df684828501611dbd565b91505092915050565b611e0881611d9c565b82525050565b600073ffffffffffffffffffffffffffffffffffffffff82169050919050565b6000611e3982611e0e565b9050919050565b611e4981611e2e565b82525050565b600081519050919050565b600082825260208201905092915050565b60005b83811015611e89578082015181840152602081019050611e6e565b60008484015250505050565b6000601f19601f8301169050919050565b6000611eb182611e4f565b611ebb8185611e5a565b9350611ecb818560208601611e6b565b611ed481611e95565b840191505092915050565b60008115159050919050565b611ef481611edf565b82525050565b7f4e487b7100000000000000000000000000000000000000000000000000000000600052602160045260246000fd5b60058110611f3a57611f39611efa565b5b50565b6000819050611f4b82611f29565b919050565b6000611f5b82611f3d565b9050919050565b611f6b81611f50565b82525050565b600061012082019050611f87600083018c611dff565b611f94602083018b611e40565b8181036040830152611fa6818a611ea6565b90508181036060830152611fba8189611ea6565b90508181036080830152611fce8188611ea6565b9050611fdd60a0830187611dff565b611fea60c0830186611dff565b611ff760e0830185611eeb565b612005610100830184611f62565b9a9950505050505050505050565b600080fd5b600080fd5b7f4e487b7100000000000000000000000000000000000000000000000000000000600052604160045260246000fd5b61205582611e95565b810181811067ffffffffffffffff821117156120745761207361201d565b5b80604052505050565b6000612087611d88565b9050612093828261204c565b919050565b600067ffffffffffffffff8211156120b3576120b261201d565b5b6120bc82611e95565b9050602081019050919050565b82818337600083830152505050565b60006120eb6120e684612098565b61207d565b90508281526020810184848401111561210757612106612018565b5b6121128482856120c9565b509392505050565b600082601f83011261212f5761212e612013565b5b813561213f8482602086016120d8565b91505092915050565b600067ffffffffffffffff8211156121635761216261201d565b5b602082029050602081019050919050565b600080fd5b600061218c61218784612148565b61207d565b905080838252602082019050602084028301858111156121af576121ae612174565b5b835b818110156121f657803567ffffffffffffffff8111156121d4576121d3612013565b5b8086016121e1898261211a565b855260208501945050506020810190506121b1565b5050509392505050565b600082601f83011261221557612214612013565b5b8135612225848260208601612179565b91505092915050565b61223781611edf565b811461224257600080fd5b50565b6000813590506122548161222e565b92915050565b600080600080600080600060e0888a03121561227957612278611d92565b5b600088013567ffffffffffffffff81111561229757612296611d97565b5b6122a38a828b0161211a565b975050602088013567ffffffffffffffff8111156122c4576122c3611d97565b5b6122d08a828b0161211a565b965050604088013567ffffffffffffffff8111156122f1576122f0611d97565b5b6122fd8a828b0161211a565b955050606088013567ffffffffffffffff81111561231e5761231d611d97565b5b61232a8a828b01612200565b945050608061233b8a828b01611dbd565b93505060a061234c8a828b01611dbd565b92505060c061235d8a828b01612245565b91505092959891949750929550565b61237581611e2e565b811461238057600080fd5b50565b6000813590506123928161236c565b92915050565b600080604083850312156123af576123ae611d92565b5b60006123bd85828601611dbd565b92505060206123ce85828601612383565b9150509250929050565b60006020820190506123ed6000830184611eeb565b92915050565b60006020820190506124086000830184611dff565b92915050565b6000806040838503121561242557612424611d92565b5b600061243385828601611dbd565b925050602061244485828601611dbd565b9150509250929050565b60006020820190506124636000830184611e40565b92915050565b600060ff82169050919050565b61247f81612469565b811461248a57600080fd5b50565b60008135905061249c81612476565b92915050565b600080604083850312156124b9576124b8611d92565b5b60006124c785828601611dbd565b92505060206124d88582860161248d565b9150509250929050565b60006040820190506124f76000830185611dff565b6125046020830184611dff565b9392505050565b600081519050919050565b600082825260208201905092915050565b6000819050602082019050919050565b61254081611d9c565b82525050565b61254f81611e2e565b82525050565b600082825260208201905092915050565b600061257182611e4f565b61257b8185612555565b935061258b818560208601611e6b565b61259481611e95565b840191505092915050565b600081519050919050565b600082825260208201905092915050565b6000819050602082019050919050565b60006125d78383612566565b905092915050565b6000602082019050919050565b60006125f78261259f565b61260181856125aa565b935083602082028501612613856125bb565b8060005b8581101561264f578484038952815161263085826125cb565b945061263b836125df565b925060208a01995050600181019050612617565b50829750879550505050505092915050565b61266a81611edf565b82525050565b61267981611f50565b82525050565b6000610140830160008301516126986000860182612537565b5060208301516126ab6020860182612546565b50604083015184820360408601526126c38282612566565b915050606083015184820360608601526126dd8282612566565b915050608083015184820360808601526126f78282612566565b91505060a083015184820360a086015261271182826125ec565b91505060c083015161272660c0860182612537565b5060e083015161273960e0860182612537565b5061010083015161274e610100860182612661565b50610120830151612763610120860182612670565b508091505092915050565b600061277a838361267f565b905092915050565b6000602082019050919050565b600061279a8261250b565b6127a48185612516565b9350836020820285016127b685612527565b8060005b858110156127f257848403895281516127d3858261276e565b94506127de83612782565b925060208a019950506001810190506127ba565b50829750879550505050505092915050565b6000602082019050818103600083015261281e818461278f565b905092915050565b600082825260208201905092915050565b60006128428261259f565b61284c8185612826565b93508360208202850161285e856125bb565b8060005b8581101561289a578484038952815161287b85826125cb565b9450612886836125df565b925060208a01995050600181019050612862565b50829750879550505050505092915050565b6000610140820190506128c2600083018d611dff565b6128cf602083018c611e40565b81810360408301526128e1818b611ea6565b905081810360608301526128f5818a611ea6565b905081810360808301526129098189611ea6565b905081810360a083015261291d8188612837565b905061292c60c0830187611dff565b61293960e0830186611dff565b612947610100830185611eeb565b612955610120830184611f62565b9b9a5050505050505050505050565b7f4e487b7100000000000000000000000000000000000000000000000000000000600052602260045260246000fd5b600060028204905060018216806129ab57607f821691505b6020821081036129be576129bd612964565b5b50919050565b7f5469746c652069732072657175697265642e0000000000000000000000000000600082015250565b60006129fa601283611e5a565b9150612a05826129c4565b602082019050919050565b60006020820190508181036000830152612a29816129ed565b9050919050565b7f4465736372697074696f6e2069732072657175697265642e0000000000000000600082015250565b6000612a66601883611e5a565b9150612a7182612a30565b602082019050919050565b60006020820190508181036000830152612a9581612a59565b9050919050565b7f476f616c20616d6f756e74206d7573742062652067726561746572207468616e60008201527f207a65726f2e0000000000000000000000000000000000000000000000000000602082015250565b6000612af8602683611e5a565b9150612b0382612a9c565b604082019050919050565b60006020820190508181036000830152612b2781612aeb565b9050919050565b7f446561646c696e65206d7573742062652061206675747572652074696d652e00600082015250565b6000612b64601f83611e5a565b9150612b6f82612b2e565b602082019050919050565b60006020820190508181036000830152612b9381612b57565b9050919050565b7f4e487b7100000000000000000000000000000000000000000000000000000000600052601160045260246000fd5b6000612bd482611d9c565b91507fffffffffffffffffffffffffffffffffffffffffffffffffffffffffffffffff8203612c0657612c05612b9a565b5b600182019050919050565b60008190508160005260206000209050919050565b60006020601f8301049050919050565b600082821b905092915050565b600060088302612c737fffffffffffffffffffffffffffffffffffffffffffffffffffffffffffffffff82612c36565b612c7d8683612c36565b95508019841693508086168417925050509392505050565b6000819050919050565b6000612cba612cb5612cb084611d9c565b612c95565b611d9c565b9050919050565b6000819050919050565b612cd483612c9f565b612ce8612ce082612cc1565b848454612c43565b825550505050565b600090565b612cfd612cf0565b612d08818484612ccb565b505050565b5b81811015612d2c57612d21600082612cf5565b600181019050612d0e565b5050565b601f821115612d7157612d4281612c11565b612d4b84612c26565b81016020851015612d5a578190505b612d6e612d6685612c26565b830182612d0d565b50505b505050565b600082821c905092915050565b6000612d9460001984600802612d76565b1980831691505092915050565b6000612dad8383612d83565b9150826002028217905092915050565b612dc682611e4f565b67ffffffffffffffff811115612ddf57612dde61201d565b5b612de98254612993565b612df4828285612d30565b600060209050601f831160018114612e275760008415612e15578287015190505b612e1f8582612da1565b865550612e87565b601f198416612e3586612c11565b60005b82811015612e5d57848901518255600182019150602085019450602081019050612e38565b86831015612e7a5784890151612e76601f891682612d83565b8355505b6001600288020188555050505b505050505050565b7f4e487b7100000000000000000000000000000000000000000000000000000000600052603260045260246000fd5b60006080820190508181036000830152612ed88187611ea6565b9050612ee76020830186611dff565b612ef46040830185611dff565b612f016060830184611eeb565b95945050505050565b6000612f1582611d9c565b9150612f2083611d9c565b9250828203905081811115612f3857612f37612b9a565b5b92915050565b7f4f6e6c79204641494c4544206f722043414e43454c4c454420616c6c6f776564600082015250565b6000612f74602083611e5a565b9150612f7f82612f3e565b602082019050919050565b60006020820190508181036000830152612fa381612f67565b9050919050565b7f4f6e6c792063726561746f722063616e206368616e6765207374617475730000600082015250565b6000612fe0601e83611e5a565b9150612feb82612faa565b602082019050919050565b6000602082019050818103600083015261300f81612fd3565b9050919050565b7f4d7573742073656e642045544800000000000000000000000000000000000000600082015250565b600061304c600d83611e5a565b915061305782613016565b602082019050919050565b6000602082019050818103600083015261307b8161303f565b9050919050565b7f50726f6a656374206e6f742066756e6472616973696e67000000000000000000600082015250565b60006130b8601783611e5a565b91506130c382613082565b602082019050919050565b600060208201905081810360008301526130e7816130ab565b9050919050565b60006130f982611d9c565b915061310483611d9c565b925082820190508082111561311c5761311b612b9a565b5b92915050565b7f496e76616c69642070657263656e746167650000000000000000000000000000600082015250565b6000613158601283611e5a565b915061316382613122565b602082019050919050565b600060208201905081810360008301526131878161314b565b9050919050565b7f4f6e6c792063726561746f722063616e20776974686472617700000000000000600082015250565b60006131c4601983611e5a565b91506131cf8261318e565b602082019050919050565b600060208201905081810360008301526131f3816131b7565b9050919050565b7f4e6f20617661696c61626c652066756e64730000000000000000000000000000600082015250565b6000613230601283611e5a565b915061323b826131fa565b602082019050919050565b6000602082019050818103600083015261325f81613223565b9050919050565b600061327182611d9c565b915061327c83611d9c565b925082820261328a81611d9c565b915082820484148315176132a1576132a0612b9a565b5b5092915050565b7f5061796f757420746f6f20736d616c6c00000000000000000000000000000000600082015250565b60006132de601083611e5a565b91506132e9826132a8565b602082019050919050565b6000602082019050818103600083015261330d816132d1565b905091905056fea2646970667358221220806fcd4dd6af5a149caea1af3cabaa5a8dd85326cdab82129314349495ce066364736f6c63430008130033",
  "immutableReferences": {},
  "source": "pragma solidity ^0.8.19;\n\ncontract DFund {\n    uint public projectCount = 0;\n\n    enum ProjectStatus { FUNDRAISING, IN_PROGRESS, COMPLETED, FAILED, CANCELLED }\n\n    struct Project {\n        uint id;\n        address creator;\n        string title;\n        string description;\n        string image;\n        string[] detailImages;\n        uint goalAmount;\n        uint deadline;\n        bool expertReviewRequested;\n        ProjectStatus status;\n    }\n\n    struct FundBalance {\n        uint totalDonated;\n        uint transferredToCreator;\n    }\n\n    mapping(uint => Project) public projects;\n    mapping(uint => FundBalance) public projectFunds;\n    mapping(uint => mapping(address => uint)) public donorBalances;\n    mapping(uint => address[]) public projectDonors;\n    mapping(uint => mapping(address => bool)) public hasDonated;\n\n    event ProjectRegistered(\n        uint indexed id,\n        address indexed creator,\n        string title,\n        uint goalAmount,\n        uint deadline,\n        bool expertReviewRequested\n    );\n\n    function registerProject(\n        string memory _title,\n        string memory _description,\n        string memory _image,\n        string[] memory _detailImages,\n        uint _goalAmount,\n        uint _deadline,\n        bool _expertReviewRequested\n    ) public {\n        require(bytes(_title).length > 0, \"Title is required.\");\n        require(bytes(_description).length > 0, \"Description is required.\");\n        require(_goalAmount > 0, \"Goal amount must be greater than zero.\");\n        require(_deadline > block.timestamp, \"Deadline must be a future time.\");\n\n        projectCount++;\n        Project storage newProject = projects[projectCount];\n\n        newProject.id = projectCount;\n        newProject.creator = msg.sender;\n        newProject.title = _title;\n        newProject.description = _description;\n        newProject.image = _image;\n        newProject.goalAmount = _goalAmount;\n        newProject.deadline = _deadline;\n        newProject.expertReviewRequested = _expertReviewRequested;\n        newProject.status = ProjectStatus.FUNDRAISING;\n\n        for (uint i = 0; i < _detailImages.length; i++) {\n            newProject.detailImages.push(_detailImages[i]);\n        }\n\n        emit ProjectRegistered(projectCount, msg.sender, _title, _goalAmount, _deadline, _expertReviewRequested);\n    }\n\n    function getProject(uint _id) public view returns (\n        uint id,\n        address creator,\n        string memory title,\n        string memory description,\n        string memory image,\n        string[] memory detailImages,\n        uint goalAmount,\n        uint deadline,\n        bool expertReviewRequested,\n        ProjectStatus status\n    ) {\n        Project memory p = projects[_id];\n        return (\n            p.id,\n            p.creator,\n            p.title,\n            p.description,\n            p.image,\n            p.detailImages,\n            p.goalAmount,\n            p.deadline,\n            p.expertReviewRequested,\n            p.status\n        );\n    }\n\n    function getAllProjects() public view returns (Project[] memory) {\n        Project[] memory result = new Project[](projectCount);\n        for (uint i = 1; i <= projectCount; i++) {\n            result[i - 1] = projects[i];\n        }\n        return result;\n    }\n\n    function donateToProject(uint _projectId) external payable {\n        require(msg.value > 0, \"Must send ETH\");\n        require(projects[_projectId].status == ProjectStatus.FUNDRAISING, \"Project not fundraising\");\n\n        donorBalances[_projectId][msg.sender] += msg.value;\n        projectFunds[_projectId].totalDonated += msg.value;\n\n        if (!hasDonated[_projectId][msg.sender]) {\n            projectDonors[_projectId].push(msg.sender);\n            hasDonated[_projectId][msg.sender] = true;\n        }\n    }\n\n    function releaseFundsToCreator(uint _projectId, uint _percent) external {\n        require(_percent <= 1, \"Invalid percentage\");\n        Project storage project = projects[_projectId];\n        require(project.creator == msg.sender, \"Only creator can withdraw\");\n\n        FundBalance storage fund = projectFunds[_projectId];\n        uint available = fund.totalDonated - fund.transferredToCreator;\n        require(available > 0, \"No available funds\");\n\n        uint payout = available * _percent;\n        require(payout > 0, \"Payout too small\");\n\n        address[] memory backers = projectDonors[_projectId];\n        for (uint i = 0; i < backers.length; i++) {\n            address donor = backers[i];\n            uint donorShare = donorBalances[_projectId][donor];\n            if (donorShare > 0) {\n                uint reduction = donorShare * _percent;\n                donorBalances[_projectId][donor] -= reduction;\n            }\n        }\n\n        if (project.status != ProjectStatus.IN_PROGRESS) {\n            project.status = ProjectStatus.IN_PROGRESS;\n        }\n\n        fund.transferredToCreator += payout;\n        payable(project.creator).transfer(payout);\n    }\n\n    function getDonorBalance(uint _projectId, address _donor) public view returns (uint) {\n        return donorBalances[_projectId][_donor];\n    }\n\n    function getTotalDonated(uint _projectId) public view returns (uint) {\n        return projectFunds[_projectId].totalDonated;\n    }\n\n    function getRemainingFunds(uint _projectId) public view returns (uint) {\n        FundBalance memory f = projectFunds[_projectId];\n        return f.totalDonated - f.transferredToCreator;\n    }\n\n    function changeProjectStatusAndRefund(uint _projectId, uint8 newStatus) external {\n        require(newStatus == uint8(ProjectStatus.FAILED) || newStatus == uint8(ProjectStatus.CANCELLED), \"Only FAILED or CANCELLED allowed\");\n\n        Project storage project = projects[_projectId];\n        require(msg.sender == project.creator, \"Only creator can change status\");\n\n        project.status = ProjectStatus(newStatus);\n\n        address[] memory backers = projectDonors[_projectId];\n        for (uint i = 0; i < backers.length; i++) {\n            address donor = backers[i];\n            uint amount = donorBalances[_projectId][donor];\n            if (amount > 0) {\n                donorBalances[_projectId][donor] = 0;\n                payable(donor).transfer(amount);\n            }\n        }\n    }\n}",
  "sourcePath": "/Users/kimtaewoo/Desktop/D-Fund/src/contracts/DFund.sol",
  "compiler": {
    "name": "solc",
    "version": "0.8.19+commit.7dd6d404.Emscripten.clang"
  },
  "schemaVersion": "3.4.16",
  "updatedAt": "2025-05-19T12:28:26.035Z",
  "networkType": "ethereum",
  "devdoc": {
    "kind": "dev",
    "methods": {},
    "version": 1
  },
  "userdoc": {
    "kind": "user",
    "methods": {},
    "version": 1
  }
}