{
  "contractName": "ExpertReview",
  "abi": [
    {
      "inputs": [
        {
          "internalType": "uint256",
          "name": "",
          "type": "uint256"
        }
      ],
      "name": "isReviewEnabled",
      "outputs": [
        {
          "internalType": "bool",
          "name": "",
          "type": "bool"
        }
      ],
      "stateMutability": "view",
      "type": "function",
      "constant": true
    },
    {
      "inputs": [
        {
          "internalType": "uint256",
          "name": "",
          "type": "uint256"
        }
      ],
      "name": "projectDeadline",
      "outputs": [
        {
          "internalType": "uint256",
          "name": "",
          "type": "uint256"
        }
      ],
      "stateMutability": "view",
      "type": "function",
      "constant": true
    },
    {
      "inputs": [
        {
          "internalType": "uint256",
          "name": "_projectId",
          "type": "uint256"
        },
        {
          "internalType": "uint256",
          "name": "_deadline",
          "type": "uint256"
        }
      ],
      "name": "enableReview",
      "outputs": [],
      "stateMutability": "nonpayable",
      "type": "function"
    },
    {
      "inputs": [
        {
          "internalType": "uint256",
          "name": "_projectId",
          "type": "uint256"
        },
        {
          "internalType": "bool",
          "name": "isPositive",
          "type": "bool"
        },
        {
          "internalType": "string",
          "name": "comment",
          "type": "string"
        }
      ],
      "name": "submitReview",
      "outputs": [],
      "stateMutability": "nonpayable",
      "type": "function"
    },
    {
      "inputs": [
        {
          "internalType": "uint256",
          "name": "_projectId",
          "type": "uint256"
        }
      ],
      "name": "getReviewResult",
      "outputs": [
        {
          "internalType": "uint256",
          "name": "positive",
          "type": "uint256"
        },
        {
          "internalType": "uint256",
          "name": "negative",
          "type": "uint256"
        }
      ],
      "stateMutability": "view",
      "type": "function",
      "constant": true
    },
    {
      "inputs": [
        {
          "internalType": "uint256",
          "name": "_projectId",
          "type": "uint256"
        },
        {
          "internalType": "address",
          "name": "reviewer",
          "type": "address"
        }
      ],
      "name": "getComment",
      "outputs": [
        {
          "internalType": "string",
          "name": "",
          "type": "string"
        }
      ],
      "stateMutability": "view",
      "type": "function",
      "constant": true
    },
    {
      "inputs": [
        {
          "internalType": "uint256",
          "name": "_projectId",
          "type": "uint256"
        },
        {
          "internalType": "address",
          "name": "reviewer",
          "type": "address"
        }
      ],
      "name": "hasReviewerVoted",
      "outputs": [
        {
          "internalType": "bool",
          "name": "",
          "type": "bool"
        }
      ],
      "stateMutability": "view",
      "type": "function",
      "constant": true
    },
    {
      "inputs": [
        {
          "internalType": "uint256",
          "name": "_projectId",
          "type": "uint256"
        }
      ],
      "name": "getReviewers",
      "outputs": [
        {
          "internalType": "address[]",
          "name": "",
          "type": "address[]"
        }
      ],
      "stateMutability": "view",
      "type": "function",
      "constant": true
    }
  ],
  "bytecode": "0x608060405234801561001057600080fd5b506111a7806100206000396000f3fe608060405234801561001057600080fd5b50600436106100885760003560e01c80634101fbc41161005b5780634101fbc4146101395780635a2bbc4a14610169578063daffefb31461019a578063f7d34990146101b657610088565b806302afb4b41461008d5780631210bc10146100bd578063186165ed146100d95780631daefbab14610109575b600080fd5b6100a760048036038101906100a291906107d5565b6101e6565b6040516100b491906108f2565b60405180910390f35b6100d760048036038101906100d29190610914565b610287565b005b6100f360048036038101906100ee91906107d5565b610311565b604051610100919061096f565b60405180910390f35b610123600480360381019061011e91906109b6565b610331565b604051610130919061096f565b60405180910390f35b610153600480360381019061014e91906109b6565b61039b565b6040516101609190610a86565b60405180910390f35b610183600480360381019061017e91906107d5565b610480565b604051610191929190610ab7565b60405180910390f35b6101b460048036038101906101af9190610b71565b6104ad565b005b6101d060048036038101906101cb91906107d5565b61077d565b6040516101dd9190610be5565b60405180910390f35b60606001600083815260200190815260200160002080548060200260200160405190810160405280929190818152602001828054801561027b57602002820191906000526020600020905b8160009054906101000a900473ffffffffffffffffffffffffffffffffffffffff1673ffffffffffffffffffffffffffffffffffffffff1681526020019060010190808311610231575b50505050509050919050565b4281116102c9576040517f08c379a00000000000000000000000000000000000000000000000000000000081526004016102c090610c4c565b60405180910390fd5b60016003600084815260200190815260200160002060006101000a81548160ff0219169083151502179055508060026000848152602001908152602001600020819055505050565b60036020528060005260406000206000915054906101000a900460ff1681565b600080600084815260200190815260200160002060020160008373ffffffffffffffffffffffffffffffffffffffff1673ffffffffffffffffffffffffffffffffffffffff16815260200190815260200160002060009054906101000a900460ff16905092915050565b606060008084815260200190815260200160002060030160008373ffffffffffffffffffffffffffffffffffffffff1673ffffffffffffffffffffffffffffffffffffffff16815260200190815260200160002080546103fa90610c9b565b80601f016020809104026020016040519081016040528092919081815260200182805461042690610c9b565b80156104735780601f1061044857610100808354040283529160200191610473565b820191906000526020600020905b81548152906001019060200180831161045657829003601f168201915b5050505050905092915050565b60008060008060008581526020019081526020016000209050806000015481600101549250925050915091565b836003600082815260200190815260200160002060009054906101000a900460ff1661050e576040517f08c379a000000000000000000000000000000000000000000000000000000000815260040161050590610d18565b60405180910390fd5b84603c600260008381526020019081526020016000205461052f9190610d67565b4210610570576040517f08c379a000000000000000000000000000000000000000000000000000000000815260040161056790610de7565b60405180910390fd5b600080600088815260200190815260200160002090508060020160003373ffffffffffffffffffffffffffffffffffffffff1673ffffffffffffffffffffffffffffffffffffffff16815260200190815260200160002060009054906101000a900460ff1615610615576040517f08c379a000000000000000000000000000000000000000000000000000000000815260040161060c90610e53565b60405180910390fd5b851561063a5780600001600081548092919061063090610e73565b9190505550610655565b80600101600081548092919061064f90610e73565b91905055505b60018160020160003373ffffffffffffffffffffffffffffffffffffffff1673ffffffffffffffffffffffffffffffffffffffff16815260200190815260200160002060006101000a81548160ff02191690831515021790555084848260030160003373ffffffffffffffffffffffffffffffffffffffff1673ffffffffffffffffffffffffffffffffffffffff16815260200190815260200160002091826106ff9291906110a1565b5060016000888152602001908152602001600020339080600181540180825580915050600190039060005260206000200160009091909190916101000a81548173ffffffffffffffffffffffffffffffffffffffff021916908373ffffffffffffffffffffffffffffffffffffffff16021790555050505050505050565b60026020528060005260406000206000915090505481565b600080fd5b600080fd5b6000819050919050565b6107b28161079f565b81146107bd57600080fd5b50565b6000813590506107cf816107a9565b92915050565b6000602082840312156107eb576107ea610795565b5b60006107f9848285016107c0565b91505092915050565b600081519050919050565b600082825260208201905092915050565b6000819050602082019050919050565b600073ffffffffffffffffffffffffffffffffffffffff82169050919050565b60006108598261082e565b9050919050565b6108698161084e565b82525050565b600061087b8383610860565b60208301905092915050565b6000602082019050919050565b600061089f82610802565b6108a9818561080d565b93506108b48361081e565b8060005b838110156108e55781516108cc888261086f565b97506108d783610887565b9250506001810190506108b8565b5085935050505092915050565b6000602082019050818103600083015261090c8184610894565b905092915050565b6000806040838503121561092b5761092a610795565b5b6000610939858286016107c0565b925050602061094a858286016107c0565b9150509250929050565b60008115159050919050565b61096981610954565b82525050565b60006020820190506109846000830184610960565b92915050565b6109938161084e565b811461099e57600080fd5b50565b6000813590506109b08161098a565b92915050565b600080604083850312156109cd576109cc610795565b5b60006109db858286016107c0565b92505060206109ec858286016109a1565b9150509250929050565b600081519050919050565b600082825260208201905092915050565b60005b83811015610a30578082015181840152602081019050610a15565b60008484015250505050565b6000601f19601f8301169050919050565b6000610a58826109f6565b610a628185610a01565b9350610a72818560208601610a12565b610a7b81610a3c565b840191505092915050565b60006020820190508181036000830152610aa08184610a4d565b905092915050565b610ab18161079f565b82525050565b6000604082019050610acc6000830185610aa8565b610ad96020830184610aa8565b9392505050565b610ae981610954565b8114610af457600080fd5b50565b600081359050610b0681610ae0565b92915050565b600080fd5b600080fd5b600080fd5b60008083601f840112610b3157610b30610b0c565b5b8235905067ffffffffffffffff811115610b4e57610b4d610b11565b5b602083019150836001820283011115610b6a57610b69610b16565b5b9250929050565b60008060008060608587031215610b8b57610b8a610795565b5b6000610b99878288016107c0565b9450506020610baa87828801610af7565b935050604085013567ffffffffffffffff811115610bcb57610bca61079a565b5b610bd787828801610b1b565b925092505092959194509250565b6000602082019050610bfa6000830184610aa8565b92915050565b7f496e76616c696420646561646c696e6500000000000000000000000000000000600082015250565b6000610c36601083610a01565b9150610c4182610c00565b602082019050919050565b60006020820190508181036000830152610c6581610c29565b9050919050565b7f4e487b7100000000000000000000000000000000000000000000000000000000600052602260045260246000fd5b60006002820490506001821680610cb357607f821691505b602082108103610cc657610cc5610c6c565b5b50919050565b7f50726f6a656374206e6f742072657669657761626c6500000000000000000000600082015250565b6000610d02601683610a01565b9150610d0d82610ccc565b602082019050919050565b60006020820190508181036000830152610d3181610cf5565b9050919050565b7f4e487b7100000000000000000000000000000000000000000000000000000000600052601160045260246000fd5b6000610d728261079f565b9150610d7d8361079f565b9250828203905081811115610d9557610d94610d38565b5b92915050565b7f52657669657720706572696f642068617320656e646564000000000000000000600082015250565b6000610dd1601783610a01565b9150610ddc82610d9b565b602082019050919050565b60006020820190508181036000830152610e0081610dc4565b9050919050565b7f416c726561647920726576696577656400000000000000000000000000000000600082015250565b6000610e3d601083610a01565b9150610e4882610e07565b602082019050919050565b60006020820190508181036000830152610e6c81610e30565b9050919050565b6000610e7e8261079f565b91507fffffffffffffffffffffffffffffffffffffffffffffffffffffffffffffffff8203610eb057610eaf610d38565b5b600182019050919050565b600082905092915050565b7f4e487b7100000000000000000000000000000000000000000000000000000000600052604160045260246000fd5b60008190508160005260206000209050919050565b60006020601f8301049050919050565b600082821b905092915050565b600060088302610f577fffffffffffffffffffffffffffffffffffffffffffffffffffffffffffffffff82610f1a565b610f618683610f1a565b95508019841693508086168417925050509392505050565b6000819050919050565b6000610f9e610f99610f948461079f565b610f79565b61079f565b9050919050565b6000819050919050565b610fb883610f83565b610fcc610fc482610fa5565b848454610f27565b825550505050565b600090565b610fe1610fd4565b610fec818484610faf565b505050565b5b8181101561101057611005600082610fd9565b600181019050610ff2565b5050565b601f8211156110555761102681610ef5565b61102f84610f0a565b8101602085101561103e578190505b61105261104a85610f0a565b830182610ff1565b50505b505050565b600082821c905092915050565b60006110786000198460080261105a565b1980831691505092915050565b60006110918383611067565b9150826002028217905092915050565b6110ab8383610ebb565b67ffffffffffffffff8111156110c4576110c3610ec6565b5b6110ce8254610c9b565b6110d9828285611014565b6000601f83116001811461110857600084156110f6578287013590505b6111008582611085565b865550611168565b601f19841661111686610ef5565b60005b8281101561113e57848901358255600182019150602085019450602081019050611119565b8683101561115b5784890135611157601f891682611067565b8355505b6001600288020188555050505b5050505050505056fea2646970667358221220cc14842b3455a1e941c36b553b25ebfa8a3396b2a68368ff964ee18e17a9f37364736f6c63430008130033",
  "immutableReferences": {},
  "source": "// SPDX-License-Identifier: MIT\npragma solidity ^0.8.19;\n\ncontract ExpertReview {\n    struct ReviewInfo {\n        uint positive;\n        uint negative;\n        mapping(address => bool) hasVoted;\n        mapping(address => string) comments;\n    }\n\n    mapping(uint => ReviewInfo) private projectReviews;\n    mapping(uint => address[]) private reviewers;\n    mapping(uint => uint) public projectDeadline;\n    mapping(uint => bool) public isReviewEnabled;\n\n    modifier onlyBeforeDeadline(uint _projectId) {\n        require(block.timestamp < projectDeadline[_projectId] - 60, \"Review period has ended\");\n        _;\n    }\n\n    modifier reviewable(uint _projectId) {\n        require(isReviewEnabled[_projectId], \"Project not reviewable\");\n        _;\n    }\n\n    function enableReview(uint _projectId, uint _deadline) external {\n        require(_deadline > block.timestamp, \"Invalid deadline\");\n        isReviewEnabled[_projectId] = true;\n        projectDeadline[_projectId] = _deadline;\n    }\n\n    function submitReview(\n        uint _projectId,\n        bool isPositive,\n        string calldata comment\n    ) external reviewable(_projectId) onlyBeforeDeadline(_projectId) {\n        ReviewInfo storage review = projectReviews[_projectId];\n        require(!review.hasVoted[msg.sender], \"Already reviewed\");\n\n        if (isPositive) {\n            review.positive++;\n        } else {\n            review.negative++;\n        }\n\n        review.hasVoted[msg.sender] = true;\n        review.comments[msg.sender] = comment;\n        reviewers[_projectId].push(msg.sender); //   \n    }\n\n    function getReviewResult(uint _projectId) external view returns (uint positive, uint negative) {\n        ReviewInfo storage review = projectReviews[_projectId];\n        return (review.positive, review.negative);\n    }\n\n    function getComment(uint _projectId, address reviewer) external view returns (string memory) {\n        return projectReviews[_projectId].comments[reviewer];\n    }\n\n    function hasReviewerVoted(uint _projectId, address reviewer) external view returns (bool) {\n        return projectReviews[_projectId].hasVoted[reviewer];\n    }\n\n    //    getter ( )\n    function getReviewers(uint _projectId) external view returns (address[] memory) {\n        return reviewers[_projectId];\n    }\n}\n",
  "sourcePath": "/Users/kimtaewoo/Desktop/D-Fund/src/contracts/ExpertReview.sol",
  "compiler": {
    "name": "solc",
    "version": "0.8.19+commit.7dd6d404.Emscripten.clang"
  },
  "schemaVersion": "3.4.16",
  "updatedAt": "2025-06-01T01:50:52.202Z",
  "networkType": "ethereum",
  "devdoc": {
    "kind": "dev",
    "methods": {},
    "version": 1
  },
  "userdoc": {
    "kind": "user",
    "methods": {},
    "version": 1
  }
}