{
  "contractName": "ExpertReview",
  "abi": [
    {
      "anonymous": false,
      "inputs": [
        {
          "indexed": true,
          "internalType": "uint256",
          "name": "projectId",
          "type": "uint256"
        },
        {
          "indexed": true,
          "internalType": "address",
          "name": "reviewer",
          "type": "address"
        },
        {
          "indexed": false,
          "internalType": "bool",
          "name": "isPositive",
          "type": "bool"
        },
        {
          "indexed": false,
          "internalType": "string",
          "name": "comment",
          "type": "string"
        }
      ],
      "name": "ReviewSubmitted",
      "type": "event"
    },
    {
      "inputs": [
        {
          "internalType": "uint256",
          "name": "",
          "type": "uint256"
        }
      ],
      "name": "isReviewEnabled",
      "outputs": [
        {
          "internalType": "bool",
          "name": "",
          "type": "bool"
        }
      ],
      "stateMutability": "view",
      "type": "function",
      "constant": true
    },
    {
      "inputs": [
        {
          "internalType": "uint256",
          "name": "",
          "type": "uint256"
        }
      ],
      "name": "projectDeadline",
      "outputs": [
        {
          "internalType": "uint256",
          "name": "",
          "type": "uint256"
        }
      ],
      "stateMutability": "view",
      "type": "function",
      "constant": true
    },
    {
      "inputs": [
        {
          "internalType": "uint256",
          "name": "_projectId",
          "type": "uint256"
        },
        {
          "internalType": "uint256",
          "name": "_deadline",
          "type": "uint256"
        }
      ],
      "name": "enableReview",
      "outputs": [],
      "stateMutability": "nonpayable",
      "type": "function"
    },
    {
      "inputs": [
        {
          "internalType": "uint256",
          "name": "_projectId",
          "type": "uint256"
        },
        {
          "internalType": "bool",
          "name": "isPositive",
          "type": "bool"
        },
        {
          "internalType": "string",
          "name": "comment",
          "type": "string"
        }
      ],
      "name": "submitReview",
      "outputs": [],
      "stateMutability": "nonpayable",
      "type": "function"
    },
    {
      "inputs": [
        {
          "internalType": "uint256",
          "name": "_projectId",
          "type": "uint256"
        }
      ],
      "name": "getReviewResult",
      "outputs": [
        {
          "internalType": "uint256",
          "name": "positive",
          "type": "uint256"
        },
        {
          "internalType": "uint256",
          "name": "negative",
          "type": "uint256"
        }
      ],
      "stateMutability": "view",
      "type": "function",
      "constant": true
    },
    {
      "inputs": [
        {
          "internalType": "uint256",
          "name": "_projectId",
          "type": "uint256"
        },
        {
          "internalType": "address",
          "name": "reviewer",
          "type": "address"
        }
      ],
      "name": "getComment",
      "outputs": [
        {
          "internalType": "string",
          "name": "",
          "type": "string"
        }
      ],
      "stateMutability": "view",
      "type": "function",
      "constant": true
    },
    {
      "inputs": [
        {
          "internalType": "uint256",
          "name": "_projectId",
          "type": "uint256"
        },
        {
          "internalType": "address",
          "name": "reviewer",
          "type": "address"
        }
      ],
      "name": "hasReviewerVoted",
      "outputs": [
        {
          "internalType": "bool",
          "name": "",
          "type": "bool"
        }
      ],
      "stateMutability": "view",
      "type": "function",
      "constant": true
    },
    {
      "inputs": [
        {
          "internalType": "uint256",
          "name": "_projectId",
          "type": "uint256"
        }
      ],
      "name": "getReviewers",
      "outputs": [
        {
          "internalType": "address[]",
          "name": "",
          "type": "address[]"
        }
      ],
      "stateMutability": "view",
      "type": "function",
      "constant": true
    }
  ],
  "bytecode": "0x608060405234801561001057600080fd5b50611268806100206000396000f3fe608060405234801561001057600080fd5b50600436106100885760003560e01c80634101fbc41161005b5780634101fbc4146101395780635a2bbc4a14610169578063daffefb31461019a578063f7d34990146101b657610088565b806302afb4b41461008d5780631210bc10146100bd578063186165ed146100d95780631daefbab14610109575b600080fd5b6100a760048036038101906100a29190610828565b6101e6565b6040516100b49190610945565b60405180910390f35b6100d760048036038101906100d29190610967565b610287565b005b6100f360048036038101906100ee9190610828565b610311565b60405161010091906109c2565b60405180910390f35b610123600480360381019061011e9190610a09565b610331565b60405161013091906109c2565b60405180910390f35b610153600480360381019061014e9190610a09565b61039b565b6040516101609190610ad9565b60405180910390f35b610183600480360381019061017e9190610828565b610480565b604051610191929190610b0a565b60405180910390f35b6101b460048036038101906101af9190610bc4565b6104ad565b005b6101d060048036038101906101cb9190610828565b6107d0565b6040516101dd9190610c38565b60405180910390f35b60606001600083815260200190815260200160002080548060200260200160405190810160405280929190818152602001828054801561027b57602002820191906000526020600020905b8160009054906101000a900473ffffffffffffffffffffffffffffffffffffffff1673ffffffffffffffffffffffffffffffffffffffff1681526020019060010190808311610231575b50505050509050919050565b4281116102c9576040517f08c379a00000000000000000000000000000000000000000000000000000000081526004016102c090610c9f565b60405180910390fd5b60016003600084815260200190815260200160002060006101000a81548160ff0219169083151502179055508060026000848152602001908152602001600020819055505050565b60036020528060005260406000206000915054906101000a900460ff1681565b600080600084815260200190815260200160002060020160008373ffffffffffffffffffffffffffffffffffffffff1673ffffffffffffffffffffffffffffffffffffffff16815260200190815260200160002060009054906101000a900460ff16905092915050565b606060008084815260200190815260200160002060030160008373ffffffffffffffffffffffffffffffffffffffff1673ffffffffffffffffffffffffffffffffffffffff16815260200190815260200160002080546103fa90610cee565b80601f016020809104026020016040519081016040528092919081815260200182805461042690610cee565b80156104735780601f1061044857610100808354040283529160200191610473565b820191906000526020600020905b81548152906001019060200180831161045657829003601f168201915b5050505050905092915050565b60008060008060008581526020019081526020016000209050806000015481600101549250925050915091565b836003600082815260200190815260200160002060009054906101000a900460ff1661050e576040517f08c379a000000000000000000000000000000000000000000000000000000000815260040161050590610d6b565b60405180910390fd5b84603c600260008381526020019081526020016000205461052f9190610dba565b4210610570576040517f08c379a000000000000000000000000000000000000000000000000000000000815260040161056790610e3a565b60405180910390fd5b600080600088815260200190815260200160002090508060020160003373ffffffffffffffffffffffffffffffffffffffff1673ffffffffffffffffffffffffffffffffffffffff16815260200190815260200160002060009054906101000a900460ff1615610615576040517f08c379a000000000000000000000000000000000000000000000000000000000815260040161060c90610ea6565b60405180910390fd5b851561063a5780600001600081548092919061063090610ec6565b9190505550610655565b80600101600081548092919061064f90610ec6565b91905055505b60018160020160003373ffffffffffffffffffffffffffffffffffffffff1673ffffffffffffffffffffffffffffffffffffffff16815260200190815260200160002060006101000a81548160ff02191690831515021790555084848260030160003373ffffffffffffffffffffffffffffffffffffffff1673ffffffffffffffffffffffffffffffffffffffff16815260200190815260200160002091826106ff9291906110f4565b5060016000888152602001908152602001600020339080600181540180825580915050600190039060005260206000200160009091909190916101000a81548173ffffffffffffffffffffffffffffffffffffffff021916908373ffffffffffffffffffffffffffffffffffffffff1602179055503373ffffffffffffffffffffffffffffffffffffffff16877fd73973c0293fbc5d70cf50c7703348dc33690ad1256220f3600e78fa8b299ac48888886040516107bf93929190611200565b60405180910390a350505050505050565b60026020528060005260406000206000915090505481565b600080fd5b600080fd5b6000819050919050565b610805816107f2565b811461081057600080fd5b50565b600081359050610822816107fc565b92915050565b60006020828403121561083e5761083d6107e8565b5b600061084c84828501610813565b91505092915050565b600081519050919050565b600082825260208201905092915050565b6000819050602082019050919050565b600073ffffffffffffffffffffffffffffffffffffffff82169050919050565b60006108ac82610881565b9050919050565b6108bc816108a1565b82525050565b60006108ce83836108b3565b60208301905092915050565b6000602082019050919050565b60006108f282610855565b6108fc8185610860565b935061090783610871565b8060005b8381101561093857815161091f88826108c2565b975061092a836108da565b92505060018101905061090b565b5085935050505092915050565b6000602082019050818103600083015261095f81846108e7565b905092915050565b6000806040838503121561097e5761097d6107e8565b5b600061098c85828601610813565b925050602061099d85828601610813565b9150509250929050565b60008115159050919050565b6109bc816109a7565b82525050565b60006020820190506109d760008301846109b3565b92915050565b6109e6816108a1565b81146109f157600080fd5b50565b600081359050610a03816109dd565b92915050565b60008060408385031215610a2057610a1f6107e8565b5b6000610a2e85828601610813565b9250506020610a3f858286016109f4565b9150509250929050565b600081519050919050565b600082825260208201905092915050565b60005b83811015610a83578082015181840152602081019050610a68565b60008484015250505050565b6000601f19601f8301169050919050565b6000610aab82610a49565b610ab58185610a54565b9350610ac5818560208601610a65565b610ace81610a8f565b840191505092915050565b60006020820190508181036000830152610af38184610aa0565b905092915050565b610b04816107f2565b82525050565b6000604082019050610b1f6000830185610afb565b610b2c6020830184610afb565b9392505050565b610b3c816109a7565b8114610b4757600080fd5b50565b600081359050610b5981610b33565b92915050565b600080fd5b600080fd5b600080fd5b60008083601f840112610b8457610b83610b5f565b5b8235905067ffffffffffffffff811115610ba157610ba0610b64565b5b602083019150836001820283011115610bbd57610bbc610b69565b5b9250929050565b60008060008060608587031215610bde57610bdd6107e8565b5b6000610bec87828801610813565b9450506020610bfd87828801610b4a565b935050604085013567ffffffffffffffff811115610c1e57610c1d6107ed565b5b610c2a87828801610b6e565b925092505092959194509250565b6000602082019050610c4d6000830184610afb565b92915050565b7f496e76616c696420646561646c696e6500000000000000000000000000000000600082015250565b6000610c89601083610a54565b9150610c9482610c53565b602082019050919050565b60006020820190508181036000830152610cb881610c7c565b9050919050565b7f4e487b7100000000000000000000000000000000000000000000000000000000600052602260045260246000fd5b60006002820490506001821680610d0657607f821691505b602082108103610d1957610d18610cbf565b5b50919050565b7f50726f6a656374206e6f742072657669657761626c6500000000000000000000600082015250565b6000610d55601683610a54565b9150610d6082610d1f565b602082019050919050565b60006020820190508181036000830152610d8481610d48565b9050919050565b7f4e487b7100000000000000000000000000000000000000000000000000000000600052601160045260246000fd5b6000610dc5826107f2565b9150610dd0836107f2565b9250828203905081811115610de857610de7610d8b565b5b92915050565b7f52657669657720706572696f642068617320656e646564000000000000000000600082015250565b6000610e24601783610a54565b9150610e2f82610dee565b602082019050919050565b60006020820190508181036000830152610e5381610e17565b9050919050565b7f416c726561647920726576696577656400000000000000000000000000000000600082015250565b6000610e90601083610a54565b9150610e9b82610e5a565b602082019050919050565b60006020820190508181036000830152610ebf81610e83565b9050919050565b6000610ed1826107f2565b91507fffffffffffffffffffffffffffffffffffffffffffffffffffffffffffffffff8203610f0357610f02610d8b565b5b600182019050919050565b600082905092915050565b7f4e487b7100000000000000000000000000000000000000000000000000000000600052604160045260246000fd5b60008190508160005260206000209050919050565b60006020601f8301049050919050565b600082821b905092915050565b600060088302610faa7fffffffffffffffffffffffffffffffffffffffffffffffffffffffffffffffff82610f6d565b610fb48683610f6d565b95508019841693508086168417925050509392505050565b6000819050919050565b6000610ff1610fec610fe7846107f2565b610fcc565b6107f2565b9050919050565b6000819050919050565b61100b83610fd6565b61101f61101782610ff8565b848454610f7a565b825550505050565b600090565b611034611027565b61103f818484611002565b505050565b5b818110156110635761105860008261102c565b600181019050611045565b5050565b601f8211156110a85761107981610f48565b61108284610f5d565b81016020851015611091578190505b6110a561109d85610f5d565b830182611044565b50505b505050565b600082821c905092915050565b60006110cb600019846008026110ad565b1980831691505092915050565b60006110e483836110ba565b9150826002028217905092915050565b6110fe8383610f0e565b67ffffffffffffffff81111561111757611116610f19565b5b6111218254610cee565b61112c828285611067565b6000601f83116001811461115b5760008415611149578287013590505b61115385826110d8565b8655506111bb565b601f19841661116986610f48565b60005b828110156111915784890135825560018201915060208501945060208101905061116c565b868310156111ae57848901356111aa601f8916826110ba565b8355505b6001600288020188555050505b50505050505050565b82818337600083830152505050565b60006111df8385610a54565b93506111ec8385846111c4565b6111f583610a8f565b840190509392505050565b600060408201905061121560008301866109b3565b81810360208301526112288184866111d3565b905094935050505056fea264697066735822122083210e54685025633022dfa9f111b1858433ff4ec593c001857be5905a729b8f64736f6c63430008130033",
  "immutableReferences": {},
  "source": "// SPDX-License-Identifier: MIT\npragma solidity ^0.8.19;\n\ncontract ExpertReview {\n    struct ReviewInfo {\n        uint positive;\n        uint negative;\n        mapping(address => bool) hasVoted;\n        mapping(address => string) comments;\n    }\n\n    mapping(uint => ReviewInfo) private projectReviews;\n    mapping(uint => address[]) private reviewers; //    \n    mapping(uint => uint) public projectDeadline;\n    mapping(uint => bool) public isReviewEnabled;\n\n    event ReviewSubmitted(\n        uint indexed projectId,\n        address indexed reviewer,\n        bool isPositive,\n        string comment\n    );\n\n    modifier onlyBeforeDeadline(uint _projectId) {\n        require(block.timestamp < projectDeadline[_projectId] - 60, \"Review period has ended\");\n        _;\n    }\n\n    modifier reviewable(uint _projectId) {\n        require(isReviewEnabled[_projectId], \"Project not reviewable\");\n        _;\n    }\n\n    function enableReview(uint _projectId, uint _deadline) external {\n        require(_deadline > block.timestamp, \"Invalid deadline\");\n        isReviewEnabled[_projectId] = true;\n        projectDeadline[_projectId] = _deadline;\n    }\n\n    function submitReview(\n        uint _projectId,\n        bool isPositive,\n        string calldata comment\n    ) external reviewable(_projectId) onlyBeforeDeadline(_projectId) {\n        ReviewInfo storage review = projectReviews[_projectId];\n        require(!review.hasVoted[msg.sender], \"Already reviewed\");\n\n        if (isPositive) {\n            review.positive++;\n        } else {\n            review.negative++;\n        }\n\n        review.hasVoted[msg.sender] = true;\n        review.comments[msg.sender] = comment;\n        reviewers[_projectId].push(msg.sender); //   \n\n        emit ReviewSubmitted(_projectId, msg.sender, isPositive, comment);\n    }\n\n    function getReviewResult(uint _projectId) external view returns (uint positive, uint negative) {\n        ReviewInfo storage review = projectReviews[_projectId];\n        return (review.positive, review.negative);\n    }\n\n    function getComment(uint _projectId, address reviewer) external view returns (string memory) {\n        return projectReviews[_projectId].comments[reviewer];\n    }\n\n    function hasReviewerVoted(uint _projectId, address reviewer) external view returns (bool) {\n        return projectReviews[_projectId].hasVoted[reviewer];\n    }\n\n    //    getter ( )\n    function getReviewers(uint _projectId) external view returns (address[] memory) {\n        return reviewers[_projectId];\n    }\n}\n",
  "sourcePath": "/Users/kimtaewoo/Desktop/D-Fund/src/contracts/ExpertReview.sol",
  "compiler": {
    "name": "solc",
    "version": "0.8.19+commit.7dd6d404.Emscripten.clang"
  },
  "schemaVersion": "3.4.16",
  "updatedAt": "2025-05-31T12:28:22.153Z",
  "networkType": "ethereum",
  "devdoc": {
    "kind": "dev",
    "methods": {},
    "version": 1
  },
  "userdoc": {
    "kind": "user",
    "methods": {},
    "version": 1
  }
}